{
  "abi": [
    {
      "type": "function",
      "name": "initialize",
      "inputs": [
        {
          "name": "data",
          "type": "bytes",
          "internalType": "bytes"
        }
      ],
      "outputs": [],
      "stateMutability": "nonpayable"
    },
    {
      "type": "event",
      "name": "LegacyBridgeUpgraded",
      "inputs": [
        {
          "name": "bridge",
          "type": "address",
          "indexed": true,
          "internalType": "address"
        },
        {
          "name": "token",
          "type": "address",
          "indexed": true,
          "internalType": "address"
        }
      ],
      "anonymous": false
    },
    {
      "type": "event",
      "name": "LogExternalInitialize",
      "inputs": [
        {
          "name": "data",
          "type": "bytes",
          "indexed": false,
          "internalType": "bytes"
        }
      ],
      "anonymous": false
    },
    {
      "type": "event",
      "name": "RoleAdminChanged",
      "inputs": [
        {
          "name": "role",
          "type": "bytes32",
          "indexed": true,
          "internalType": "bytes32"
        },
        {
          "name": "previousAdminRole",
          "type": "bytes32",
          "indexed": true,
          "internalType": "bytes32"
        },
        {
          "name": "newAdminRole",
          "type": "bytes32",
          "indexed": true,
          "internalType": "bytes32"
        }
      ],
      "anonymous": false
    },
    {
      "type": "event",
      "name": "RoleGranted",
      "inputs": [
        {
          "name": "role",
          "type": "bytes32",
          "indexed": true,
          "internalType": "bytes32"
        },
        {
          "name": "account",
          "type": "address",
          "indexed": true,
          "internalType": "address"
        },
        {
          "name": "sender",
          "type": "address",
          "indexed": true,
          "internalType": "address"
        }
      ],
      "anonymous": false
    }
  ],
  "bytecode": {
    "object": "0x6080604052348015600f57600080fd5b50610a618061001f6000396000f3fe608060405234801561001057600080fd5b506004361061002b5760003560e01c8063439fab9114610030575b600080fd5b61004361003e3660046107d8565b610045565b005b6040811461009a5760405162461bcd60e51b815260206004820152601b60248201527f494e56414c49445f494e49545f444154415f4c454e4754485f3634000000000060448201526064015b60405180910390fd5b6000806100a983850185610868565b90925090506001600160a01b038216156100c357816100c5565b335b91506001600160a01b038116156100dc57806100de565b815b90506100ea82826102ac565b60006100f46103b4565b90506000811161013a5760405162461bcd60e51b81526020600482015260116024820152704e4f545f4c45474143595f42524944474560781b6044820152606401610091565b60006101446103dc565b905080600003610152575060015b600061015c6103ff565b90506001600160a01b03811661017a57506245544861017a81610422565b6001600160a01b03811660009081527fc59c20aaa96597268f595db30ec21108a505370e3266ed3a6515637f16b8b68960205260408120805490919060ff1660038111156101ca576101ca61089b565b146102175760405162461bcd60e51b815260206004820152601760248201527f4252494447455f414c52454144595f55504752414445440000000000000000006044820152606401610091565b805460ff19166002178155600381018390556102336005610447565b7fcd1400d214c673d845a60be61e4392df27be94360484e7da79f75c022255061588886040516102649291906108b1565b60405180910390a16040516001600160a01b0383169030907fbf180a3441bfd90aebeace0882b08f0588f99a9b86e1480516fcc0464c6fad3290600090a35050505050505050565b6102b4610469565b15610322576102d16000805160206109108339815191528361048a565b61031d5760405162461bcd60e51b815260206004820152601960248201527f524f4c45535f414c52454144595f494e495449414c495a4544000000000000006044820152606401610091565b61032b565b61032b826104c2565b6103336105f7565b156103ab576103506000805160206109308339815191528261048a565b6103a75760405162461bcd60e51b815260206004820152602260248201527f53454355524954595f524f4c45535f414c52454144595f494e495449414c495a604482015261115160f21b6064820152608401610091565b5050565b6103a781610611565b60006103d76040518060600160405280602181526020016109e260219139610679565b905090565b60006103d760405180606001604052806027815260200161097060279139610679565b60006103d7604051806060016040528060298152602001610a0360299139610679565b610444604051806060016040528060298152602001610a0360299139826106ad565b50565b6104446040518060600160405280602b81526020016109b7602b9139826106ad565b6000806104836000805160206109108339815191526106e0565b1415905090565b6000918252600080516020610950833981519152602090815260408084206001600160a01b0393909316845291905290205460ff1690565b6104da60008051602061091083398151915282610702565b6105117ed2ead78c620e94b02d0a996e99298c59ddccfa1d8a0149080ac3a20de06068600080516020610997833981519152610778565b610537600080516020610997833981519152600080516020610910833981519152610778565b61054f60008051602061091083398151915280610778565b6105877f023edb77f7c8cc9e38e8afe78954f703aeeda7fffe014eeb6e56ea84e62f6da7600080516020610997833981519152610778565b6105bf7f0128d63adbf6b09002c26caf55c47e2f26635807e3ef1b027218aa74c8d61a3e600080516020610997833981519152610778565b6104447f0251e864ca2a080f55bce5da2452e8cfcafdbc951a3e7fff5023d558452ec228600080516020610910833981519152610778565b6000806104836000805160206109308339815191526106e0565b61062960008051602061093083398151915280610778565b6106617f037693ba312785932d430dccf0f56ffedd0aa7c0f8b6da2cc4530c2717689b96600080516020610930833981519152610778565b61044460008051602061093083398151915282610702565b6000808260405160200161068d91906108e0565b60408051601f198184030181529190528051602090910120549392505050565b6000826040516020016106c091906108e0565b604051602081830303815290604052805190602001209050818155505050565b6000908152600080516020610950833981519152602052604090206001015490565b61070c828261048a565b6103a7576000828152600080516020610950833981519152602090815260408083206001600160a01b0385168085529252808320805460ff1916600117905551339285917f2f8788117e7eff1d82e926ec794901d17c78024a50270940304540a733656f0d9190a45050565b6000610783836106e0565b60008481526000805160206109508339815191526020526040808220600101859055519192508391839186917fbd79b86ffe0ab8e8776151514217cd7cacd52c909f66475c3af44e129f0b00ff9190a4505050565b600080602083850312156107eb57600080fd5b823567ffffffffffffffff81111561080257600080fd5b8301601f8101851361081357600080fd5b803567ffffffffffffffff81111561082a57600080fd5b85602082840101111561083c57600080fd5b6020919091019590945092505050565b80356001600160a01b038116811461086357600080fd5b919050565b6000806040838503121561087b57600080fd5b6108848361084c565b91506108926020840161084c565b90509250929050565b634e487b7160e01b600052602160045260246000fd5b60208152816020820152818360408301376000818301604090810191909152601f909201601f19160101919050565b6000825160005b8181101561090157602081860181015185830152016108e7565b50600092019182525091905056fe03711c9d994faf6055172091cb841fd4831aa743e6f3315163b06a122c841846026bd110619d11cfdfc28e281df893bc24828e89177318e9dbd860cdaedeb6b353e43b954ba190a7e49386f1f78b01dcd9f628db23f432fa029a7dfd6d98e8fb535441524b4e45545f544f4b454e5f4252494447455f4d41585f544f54414c5f42414c414e434503e615638e0b79444a70f8c695bf8f2a47033bf1cf95691ec3130f64939cee9957495448445241574c5f4c494d49545f57495448445241575f4c494d49545f5043545f534c4f545f544147535441524b4e45545f544f4b454e5f4252494447455f4d41585f4445504f534954535441524b4e45545f45524332305f544f4b454e5f4252494447455f544f4b454e5f41444452455353a26469706673582212204c6a2ba476bc0b3a9f41800528b44cdb4e386085d92f19bc0fbfcf2b6b9b590c64736f6c634300081b0033",
    "linkReferences": {}
  },
  "methodIdentifiers": {
    "initialize(bytes)": "439fab91"
  },
  "id": 11
}