{
  "abi": [
    {
      "type": "function",
      "name": "assignLegacyProxyGovernor",
      "inputs": [
        {
          "name": "account",
          "type": "address",
          "internalType": "address"
        }
      ],
      "outputs": [],
      "stateMutability": "nonpayable"
    },
    {
      "type": "function",
      "name": "checkDeploymentStatus",
      "inputs": [
        {
          "name": "token",
          "type": "address",
          "internalType": "address"
        }
      ],
      "outputs": [],
      "stateMutability": "nonpayable"
    },
    {
      "type": "function",
      "name": "deactivate",
      "inputs": [
        {
          "name": "token",
          "type": "address",
          "internalType": "address"
        }
      ],
      "outputs": [],
      "stateMutability": "nonpayable"
    },
    {
      "type": "function",
      "name": "deposit",
      "inputs": [
        {
          "name": "token",
          "type": "address",
          "internalType": "address"
        },
        {
          "name": "amount",
          "type": "uint256",
          "internalType": "uint256"
        },
        {
          "name": "l2Recipient",
          "type": "uint256",
          "internalType": "uint256"
        }
      ],
      "outputs": [],
      "stateMutability": "payable"
    },
    {
      "type": "function",
      "name": "deposit",
      "inputs": [
        {
          "name": "amount",
          "type": "uint256",
          "internalType": "uint256"
        },
        {
          "name": "l2Recipient",
          "type": "uint256",
          "internalType": "uint256"
        }
      ],
      "outputs": [],
      "stateMutability": "payable"
    },
    {
      "type": "function",
      "name": "depositCancelRequest",
      "inputs": [
        {
          "name": "token",
          "type": "address",
          "internalType": "address"
        },
        {
          "name": "amount",
          "type": "uint256",
          "internalType": "uint256"
        },
        {
          "name": "l2Recipient",
          "type": "uint256",
          "internalType": "uint256"
        },
        {
          "name": "nonce",
          "type": "uint256",
          "internalType": "uint256"
        }
      ],
      "outputs": [],
      "stateMutability": "nonpayable"
    },
    {
      "type": "function",
      "name": "depositReclaim",
      "inputs": [
        {
          "name": "token",
          "type": "address",
          "internalType": "address"
        },
        {
          "name": "amount",
          "type": "uint256",
          "internalType": "uint256"
        },
        {
          "name": "l2Recipient",
          "type": "uint256",
          "internalType": "uint256"
        },
        {
          "name": "nonce",
          "type": "uint256",
          "internalType": "uint256"
        }
      ],
      "outputs": [],
      "stateMutability": "nonpayable"
    },
    {
      "type": "function",
      "name": "depositWithMessage",
      "inputs": [
        {
          "name": "token",
          "type": "address",
          "internalType": "address"
        },
        {
          "name": "amount",
          "type": "uint256",
          "internalType": "uint256"
        },
        {
          "name": "l2Recipient",
          "type": "uint256",
          "internalType": "uint256"
        },
        {
          "name": "message",
          "type": "uint256[]",
          "internalType": "uint256[]"
        }
      ],
      "outputs": [],
      "stateMutability": "payable"
    },
    {
      "type": "function",
      "name": "depositWithMessageCancelRequest",
      "inputs": [
        {
          "name": "token",
          "type": "address",
          "internalType": "address"
        },
        {
          "name": "amount",
          "type": "uint256",
          "internalType": "uint256"
        },
        {
          "name": "l2Recipient",
          "type": "uint256",
          "internalType": "uint256"
        },
        {
          "name": "message",
          "type": "uint256[]",
          "internalType": "uint256[]"
        },
        {
          "name": "nonce",
          "type": "uint256",
          "internalType": "uint256"
        }
      ],
      "outputs": [],
      "stateMutability": "nonpayable"
    },
    {
      "type": "function",
      "name": "depositWithMessageReclaim",
      "inputs": [
        {
          "name": "token",
          "type": "address",
          "internalType": "address"
        },
        {
          "name": "amount",
          "type": "uint256",
          "internalType": "uint256"
        },
        {
          "name": "l2Recipient",
          "type": "uint256",
          "internalType": "uint256"
        },
        {
          "name": "message",
          "type": "uint256[]",
          "internalType": "uint256[]"
        },
        {
          "name": "nonce",
          "type": "uint256",
          "internalType": "uint256"
        }
      ],
      "outputs": [],
      "stateMutability": "nonpayable"
    },
    {
      "type": "function",
      "name": "disableWithdrawalLimit",
      "inputs": [
        {
          "name": "token",
          "type": "address",
          "internalType": "address"
        }
      ],
      "outputs": [],
      "stateMutability": "nonpayable"
    },
    {
      "type": "function",
      "name": "enableWithdrawalLimit",
      "inputs": [
        {
          "name": "token",
          "type": "address",
          "internalType": "address"
        }
      ],
      "outputs": [],
      "stateMutability": "nonpayable"
    },
    {
      "type": "function",
      "name": "enrollToken",
      "inputs": [
        {
          "name": "",
          "type": "address",
          "internalType": "address"
        }
      ],
      "outputs": [],
      "stateMutability": "payable"
    },
    {
      "type": "function",
      "name": "estimateDepositFeeWei",
      "inputs": [],
      "outputs": [
        {
          "name": "",
          "type": "uint256",
          "internalType": "uint256"
        }
      ],
      "stateMutability": "pure"
    },
    {
      "type": "function",
      "name": "estimateEnrollmentFeeWei",
      "inputs": [],
      "outputs": [
        {
          "name": "",
          "type": "uint256",
          "internalType": "uint256"
        }
      ],
      "stateMutability": "pure"
    },
    {
      "type": "function",
      "name": "getMaxTotalBalance",
      "inputs": [
        {
          "name": "token",
          "type": "address",
          "internalType": "address"
        }
      ],
      "outputs": [
        {
          "name": "",
          "type": "uint256",
          "internalType": "uint256"
        }
      ],
      "stateMutability": "view"
    },
    {
      "type": "function",
      "name": "getRemainingIntradayAllowance",
      "inputs": [
        {
          "name": "token",
          "type": "address",
          "internalType": "address"
        }
      ],
      "outputs": [
        {
          "name": "",
          "type": "uint256",
          "internalType": "uint256"
        }
      ],
      "stateMutability": "view"
    },
    {
      "type": "function",
      "name": "getStatus",
      "inputs": [
        {
          "name": "token",
          "type": "address",
          "internalType": "address"
        }
      ],
      "outputs": [
        {
          "name": "",
          "type": "uint8",
          "internalType": "enum StarknetTokenStorage.TokenStatus"
        }
      ],
      "stateMutability": "view"
    },
    {
      "type": "function",
      "name": "identify",
      "inputs": [],
      "outputs": [
        {
          "name": "",
          "type": "string",
          "internalType": "string"
        }
      ],
      "stateMutability": "pure"
    },
    {
      "type": "function",
      "name": "initialize",
      "inputs": [
        {
          "name": "data",
          "type": "bytes",
          "internalType": "bytes"
        }
      ],
      "outputs": [],
      "stateMutability": "nonpayable"
    },
    {
      "type": "function",
      "name": "isAppGovernor",
      "inputs": [
        {
          "name": "account",
          "type": "address",
          "internalType": "address"
        }
      ],
      "outputs": [
        {
          "name": "",
          "type": "bool",
          "internalType": "bool"
        }
      ],
      "stateMutability": "view"
    },
    {
      "type": "function",
      "name": "isAppRoleAdmin",
      "inputs": [
        {
          "name": "account",
          "type": "address",
          "internalType": "address"
        }
      ],
      "outputs": [
        {
          "name": "",
          "type": "bool",
          "internalType": "bool"
        }
      ],
      "stateMutability": "view"
    },
    {
      "type": "function",
      "name": "isFrozen",
      "inputs": [],
      "outputs": [
        {
          "name": "",
          "type": "bool",
          "internalType": "bool"
        }
      ],
      "stateMutability": "view"
    },
    {
      "type": "function",
      "name": "isGovernanceAdmin",
      "inputs": [
        {
          "name": "account",
          "type": "address",
          "internalType": "address"
        }
      ],
      "outputs": [
        {
          "name": "",
          "type": "bool",
          "internalType": "bool"
        }
      ],
      "stateMutability": "view"
    },
    {
      "type": "function",
      "name": "isOperator",
      "inputs": [
        {
          "name": "account",
          "type": "address",
          "internalType": "address"
        }
      ],
      "outputs": [
        {
          "name": "",
          "type": "bool",
          "internalType": "bool"
        }
      ],
      "stateMutability": "view"
    },
    {
      "type": "function",
      "name": "isSecurityAdmin",
      "inputs": [
        {
          "name": "account",
          "type": "address",
          "internalType": "address"
        }
      ],
      "outputs": [
        {
          "name": "",
          "type": "bool",
          "internalType": "bool"
        }
      ],
      "stateMutability": "view"
    },
    {
      "type": "function",
      "name": "isSecurityAgent",
      "inputs": [
        {
          "name": "account",
          "type": "address",
          "internalType": "address"
        }
      ],
      "outputs": [
        {
          "name": "",
          "type": "bool",
          "internalType": "bool"
        }
      ],
      "stateMutability": "view"
    },
    {
      "type": "function",
      "name": "isServicingToken",
      "inputs": [
        {
          "name": "token",
          "type": "address",
          "internalType": "address"
        }
      ],
      "outputs": [
        {
          "name": "",
          "type": "bool",
          "internalType": "bool"
        }
      ],
      "stateMutability": "view"
    },
    {
      "type": "function",
      "name": "isTokenAdmin",
      "inputs": [
        {
          "name": "account",
          "type": "address",
          "internalType": "address"
        }
      ],
      "outputs": [
        {
          "name": "",
          "type": "bool",
          "internalType": "bool"
        }
      ],
      "stateMutability": "view"
    },
    {
      "type": "function",
      "name": "isUpgradeGovernor",
      "inputs": [
        {
          "name": "account",
          "type": "address",
          "internalType": "address"
        }
      ],
      "outputs": [
        {
          "name": "",
          "type": "bool",
          "internalType": "bool"
        }
      ],
      "stateMutability": "view"
    },
    {
      "type": "function",
      "name": "legacyDepositCancelRequest",
      "inputs": [
        {
          "name": "amount",
          "type": "uint256",
          "internalType": "uint256"
        },
        {
          "name": "l2Recipient",
          "type": "uint256",
          "internalType": "uint256"
        },
        {
          "name": "nonce",
          "type": "uint256",
          "internalType": "uint256"
        }
      ],
      "outputs": [],
      "stateMutability": "nonpayable"
    },
    {
      "type": "function",
      "name": "legacyDepositReclaim",
      "inputs": [
        {
          "name": "amount",
          "type": "uint256",
          "internalType": "uint256"
        },
        {
          "name": "l2Recipient",
          "type": "uint256",
          "internalType": "uint256"
        },
        {
          "name": "nonce",
          "type": "uint256",
          "internalType": "uint256"
        }
      ],
      "outputs": [],
      "stateMutability": "nonpayable"
    },
    {
      "type": "function",
      "name": "maxDeposit",
      "inputs": [],
      "outputs": [
        {
          "name": "",
          "type": "uint256",
          "internalType": "uint256"
        }
      ],
      "stateMutability": "pure"
    },
    {
      "type": "function",
      "name": "maxTotalBalance",
      "inputs": [],
      "outputs": [
        {
          "name": "",
          "type": "uint256",
          "internalType": "uint256"
        }
      ],
      "stateMutability": "view"
    },
    {
      "type": "function",
      "name": "registerAppGovernor",
      "inputs": [
        {
          "name": "account",
          "type": "address",
          "internalType": "address"
        }
      ],
      "outputs": [],
      "stateMutability": "nonpayable"
    },
    {
      "type": "function",
      "name": "registerAppRoleAdmin",
      "inputs": [
        {
          "name": "account",
          "type": "address",
          "internalType": "address"
        }
      ],
      "outputs": [],
      "stateMutability": "nonpayable"
    },
    {
      "type": "function",
      "name": "registerGovernanceAdmin",
      "inputs": [
        {
          "name": "account",
          "type": "address",
          "internalType": "address"
        }
      ],
      "outputs": [],
      "stateMutability": "nonpayable"
    },
    {
      "type": "function",
      "name": "registerOperator",
      "inputs": [
        {
          "name": "account",
          "type": "address",
          "internalType": "address"
        }
      ],
      "outputs": [],
      "stateMutability": "nonpayable"
    },
    {
      "type": "function",
      "name": "registerSecurityAdmin",
      "inputs": [
        {
          "name": "account",
          "type": "address",
          "internalType": "address"
        }
      ],
      "outputs": [],
      "stateMutability": "nonpayable"
    },
    {
      "type": "function",
      "name": "registerSecurityAgent",
      "inputs": [
        {
          "name": "account",
          "type": "address",
          "internalType": "address"
        }
      ],
      "outputs": [],
      "stateMutability": "nonpayable"
    },
    {
      "type": "function",
      "name": "registerTokenAdmin",
      "inputs": [
        {
          "name": "account",
          "type": "address",
          "internalType": "address"
        }
      ],
      "outputs": [],
      "stateMutability": "nonpayable"
    },
    {
      "type": "function",
      "name": "registerUpgradeGovernor",
      "inputs": [
        {
          "name": "account",
          "type": "address",
          "internalType": "address"
        }
      ],
      "outputs": [],
      "stateMutability": "nonpayable"
    },
    {
      "type": "function",
      "name": "removeLegacyProxyGovernor",
      "inputs": [
        {
          "name": "account",
          "type": "address",
          "internalType": "address"
        }
      ],
      "outputs": [],
      "stateMutability": "nonpayable"
    },
    {
      "type": "function",
      "name": "renounceRole",
      "inputs": [
        {
          "name": "role",
          "type": "bytes32",
          "internalType": "bytes32"
        },
        {
          "name": "account",
          "type": "address",
          "internalType": "address"
        }
      ],
      "outputs": [],
      "stateMutability": "nonpayable"
    },
    {
      "type": "function",
      "name": "revokeAppGovernor",
      "inputs": [
        {
          "name": "account",
          "type": "address",
          "internalType": "address"
        }
      ],
      "outputs": [],
      "stateMutability": "nonpayable"
    },
    {
      "type": "function",
      "name": "revokeAppRoleAdmin",
      "inputs": [
        {
          "name": "account",
          "type": "address",
          "internalType": "address"
        }
      ],
      "outputs": [],
      "stateMutability": "nonpayable"
    },
    {
      "type": "function",
      "name": "revokeGovernanceAdmin",
      "inputs": [
        {
          "name": "account",
          "type": "address",
          "internalType": "address"
        }
      ],
      "outputs": [],
      "stateMutability": "nonpayable"
    },
    {
      "type": "function",
      "name": "revokeOperator",
      "inputs": [
        {
          "name": "account",
          "type": "address",
          "internalType": "address"
        }
      ],
      "outputs": [],
      "stateMutability": "nonpayable"
    },
    {
      "type": "function",
      "name": "revokeSecurityAdmin",
      "inputs": [
        {
          "name": "account",
          "type": "address",
          "internalType": "address"
        }
      ],
      "outputs": [],
      "stateMutability": "nonpayable"
    },
    {
      "type": "function",
      "name": "revokeSecurityAgent",
      "inputs": [
        {
          "name": "account",
          "type": "address",
          "internalType": "address"
        }
      ],
      "outputs": [],
      "stateMutability": "nonpayable"
    },
    {
      "type": "function",
      "name": "revokeTokenAdmin",
      "inputs": [
        {
          "name": "account",
          "type": "address",
          "internalType": "address"
        }
      ],
      "outputs": [],
      "stateMutability": "nonpayable"
    },
    {
      "type": "function",
      "name": "revokeUpgradeGovernor",
      "inputs": [
        {
          "name": "account",
          "type": "address",
          "internalType": "address"
        }
      ],
      "outputs": [],
      "stateMutability": "nonpayable"
    },
    {
      "type": "function",
      "name": "setL2TokenBridge",
      "inputs": [
        {
          "name": "l2TokenBridge_",
          "type": "uint256",
          "internalType": "uint256"
        }
      ],
      "outputs": [],
      "stateMutability": "nonpayable"
    },
    {
      "type": "function",
      "name": "setMaxTotalBalance",
      "inputs": [
        {
          "name": "token",
          "type": "address",
          "internalType": "address"
        },
        {
          "name": "maxTotalBalance_",
          "type": "uint256",
          "internalType": "uint256"
        }
      ],
      "outputs": [],
      "stateMutability": "nonpayable"
    },
    {
      "type": "function",
      "name": "withdraw",
      "inputs": [
        {
          "name": "amount",
          "type": "uint256",
          "internalType": "uint256"
        },
        {
          "name": "recipient",
          "type": "address",
          "internalType": "address"
        }
      ],
      "outputs": [],
      "stateMutability": "nonpayable"
    },
    {
      "type": "function",
      "name": "withdraw",
      "inputs": [
        {
          "name": "amount",
          "type": "uint256",
          "internalType": "uint256"
        }
      ],
      "outputs": [],
      "stateMutability": "nonpayable"
    },
    {
      "type": "function",
      "name": "withdraw",
      "inputs": [
        {
          "name": "token",
          "type": "address",
          "internalType": "address"
        },
        {
          "name": "amount",
          "type": "uint256",
          "internalType": "uint256"
        },
        {
          "name": "recipient",
          "type": "address",
          "internalType": "address"
        }
      ],
      "outputs": [],
      "stateMutability": "nonpayable"
    },
    {
      "type": "function",
      "name": "withdraw",
      "inputs": [
        {
          "name": "token",
          "type": "address",
          "internalType": "address"
        },
        {
          "name": "amount",
          "type": "uint256",
          "internalType": "uint256"
        }
      ],
      "outputs": [],
      "stateMutability": "nonpayable"
    },
    {
      "type": "event",
      "name": "Deposit",
      "inputs": [
        {
          "name": "sender",
          "type": "address",
          "indexed": true,
          "internalType": "address"
        },
        {
          "name": "token",
          "type": "address",
          "indexed": true,
          "internalType": "address"
        },
        {
          "name": "amount",
          "type": "uint256",
          "indexed": false,
          "internalType": "uint256"
        },
        {
          "name": "l2Recipient",
          "type": "uint256",
          "indexed": true,
          "internalType": "uint256"
        },
        {
          "name": "nonce",
          "type": "uint256",
          "indexed": false,
          "internalType": "uint256"
        },
        {
          "name": "fee",
          "type": "uint256",
          "indexed": false,
          "internalType": "uint256"
        }
      ],
      "anonymous": false
    },
    {
      "type": "event",
      "name": "DepositCancelRequest",
      "inputs": [
        {
          "name": "sender",
          "type": "address",
          "indexed": true,
          "internalType": "address"
        },
        {
          "name": "token",
          "type": "address",
          "indexed": true,
          "internalType": "address"
        },
        {
          "name": "amount",
          "type": "uint256",
          "indexed": false,
          "internalType": "uint256"
        },
        {
          "name": "l2Recipient",
          "type": "uint256",
          "indexed": true,
          "internalType": "uint256"
        },
        {
          "name": "nonce",
          "type": "uint256",
          "indexed": false,
          "internalType": "uint256"
        }
      ],
      "anonymous": false
    },
    {
      "type": "event",
      "name": "DepositReclaimed",
      "inputs": [
        {
          "name": "sender",
          "type": "address",
          "indexed": true,
          "internalType": "address"
        },
        {
          "name": "token",
          "type": "address",
          "indexed": true,
          "internalType": "address"
        },
        {
          "name": "amount",
          "type": "uint256",
          "indexed": false,
          "internalType": "uint256"
        },
        {
          "name": "l2Recipient",
          "type": "uint256",
          "indexed": true,
          "internalType": "uint256"
        },
        {
          "name": "nonce",
          "type": "uint256",
          "indexed": false,
          "internalType": "uint256"
        }
      ],
      "anonymous": false
    },
    {
      "type": "event",
      "name": "DepositWithMessage",
      "inputs": [
        {
          "name": "sender",
          "type": "address",
          "indexed": true,
          "internalType": "address"
        },
        {
          "name": "token",
          "type": "address",
          "indexed": true,
          "internalType": "address"
        },
        {
          "name": "amount",
          "type": "uint256",
          "indexed": false,
          "internalType": "uint256"
        },
        {
          "name": "l2Recipient",
          "type": "uint256",
          "indexed": true,
          "internalType": "uint256"
        },
        {
          "name": "message",
          "type": "uint256[]",
          "indexed": false,
          "internalType": "uint256[]"
        },
        {
          "name": "nonce",
          "type": "uint256",
          "indexed": false,
          "internalType": "uint256"
        },
        {
          "name": "fee",
          "type": "uint256",
          "indexed": false,
          "internalType": "uint256"
        }
      ],
      "anonymous": false
    },
    {
      "type": "event",
      "name": "DepositWithMessageCancelRequest",
      "inputs": [
        {
          "name": "sender",
          "type": "address",
          "indexed": true,
          "internalType": "address"
        },
        {
          "name": "token",
          "type": "address",
          "indexed": true,
          "internalType": "address"
        },
        {
          "name": "amount",
          "type": "uint256",
          "indexed": false,
          "internalType": "uint256"
        },
        {
          "name": "l2Recipient",
          "type": "uint256",
          "indexed": true,
          "internalType": "uint256"
        },
        {
          "name": "message",
          "type": "uint256[]",
          "indexed": false,
          "internalType": "uint256[]"
        },
        {
          "name": "nonce",
          "type": "uint256",
          "indexed": false,
          "internalType": "uint256"
        }
      ],
      "anonymous": false
    },
    {
      "type": "event",
      "name": "DepositWithMessageReclaimed",
      "inputs": [
        {
          "name": "sender",
          "type": "address",
          "indexed": true,
          "internalType": "address"
        },
        {
          "name": "token",
          "type": "address",
          "indexed": true,
          "internalType": "address"
        },
        {
          "name": "amount",
          "type": "uint256",
          "indexed": false,
          "internalType": "uint256"
        },
        {
          "name": "l2Recipient",
          "type": "uint256",
          "indexed": true,
          "internalType": "uint256"
        },
        {
          "name": "message",
          "type": "uint256[]",
          "indexed": false,
          "internalType": "uint256[]"
        },
        {
          "name": "nonce",
          "type": "uint256",
          "indexed": false,
          "internalType": "uint256"
        }
      ],
      "anonymous": false
    },
    {
      "type": "event",
      "name": "LogDeposit",
      "inputs": [
        {
          "name": "sender",
          "type": "address",
          "indexed": true,
          "internalType": "address"
        },
        {
          "name": "amount",
          "type": "uint256",
          "indexed": false,
          "internalType": "uint256"
        },
        {
          "name": "l2Recipient",
          "type": "uint256",
          "indexed": true,
          "internalType": "uint256"
        },
        {
          "name": "nonce",
          "type": "uint256",
          "indexed": false,
          "internalType": "uint256"
        },
        {
          "name": "fee",
          "type": "uint256",
          "indexed": false,
          "internalType": "uint256"
        }
      ],
      "anonymous": false
    },
    {
      "type": "event",
      "name": "LogDepositCancelRequest",
      "inputs": [
        {
          "name": "sender",
          "type": "address",
          "indexed": true,
          "internalType": "address"
        },
        {
          "name": "amount",
          "type": "uint256",
          "indexed": false,
          "internalType": "uint256"
        },
        {
          "name": "l2Recipient",
          "type": "uint256",
          "indexed": true,
          "internalType": "uint256"
        },
        {
          "name": "nonce",
          "type": "uint256",
          "indexed": false,
          "internalType": "uint256"
        }
      ],
      "anonymous": false
    },
    {
      "type": "event",
      "name": "LogDepositReclaimed",
      "inputs": [
        {
          "name": "sender",
          "type": "address",
          "indexed": true,
          "internalType": "address"
        },
        {
          "name": "amount",
          "type": "uint256",
          "indexed": false,
          "internalType": "uint256"
        },
        {
          "name": "l2Recipient",
          "type": "uint256",
          "indexed": true,
          "internalType": "uint256"
        },
        {
          "name": "nonce",
          "type": "uint256",
          "indexed": false,
          "internalType": "uint256"
        }
      ],
      "anonymous": false
    },
    {
      "type": "event",
      "name": "LogNewGovernorAccepted",
      "inputs": [
        {
          "name": "acceptedGovernor",
          "type": "address",
          "indexed": false,
          "internalType": "address"
        }
      ],
      "anonymous": false
    },
    {
      "type": "event",
      "name": "LogRemovedGovernor",
      "inputs": [
        {
          "name": "removedGovernor",
          "type": "address",
          "indexed": false,
          "internalType": "address"
        }
      ],
      "anonymous": false
    },
    {
      "type": "event",
      "name": "RoleAdminChanged",
      "inputs": [
        {
          "name": "role",
          "type": "bytes32",
          "indexed": true,
          "internalType": "bytes32"
        },
        {
          "name": "previousAdminRole",
          "type": "bytes32",
          "indexed": true,
          "internalType": "bytes32"
        },
        {
          "name": "newAdminRole",
          "type": "bytes32",
          "indexed": true,
          "internalType": "bytes32"
        }
      ],
      "anonymous": false
    },
    {
      "type": "event",
      "name": "RoleGranted",
      "inputs": [
        {
          "name": "role",
          "type": "bytes32",
          "indexed": true,
          "internalType": "bytes32"
        },
        {
          "name": "account",
          "type": "address",
          "indexed": true,
          "internalType": "address"
        },
        {
          "name": "sender",
          "type": "address",
          "indexed": true,
          "internalType": "address"
        }
      ],
      "anonymous": false
    },
    {
      "type": "event",
      "name": "RoleRevoked",
      "inputs": [
        {
          "name": "role",
          "type": "bytes32",
          "indexed": true,
          "internalType": "bytes32"
        },
        {
          "name": "account",
          "type": "address",
          "indexed": true,
          "internalType": "address"
        },
        {
          "name": "sender",
          "type": "address",
          "indexed": true,
          "internalType": "address"
        }
      ],
      "anonymous": false
    },
    {
      "type": "event",
      "name": "SetL2TokenBridge",
      "inputs": [
        {
          "name": "value",
          "type": "uint256",
          "indexed": false,
          "internalType": "uint256"
        }
      ],
      "anonymous": false
    },
    {
      "type": "event",
      "name": "SetMaxTotalBalance",
      "inputs": [
        {
          "name": "token",
          "type": "address",
          "indexed": true,
          "internalType": "address"
        },
        {
          "name": "value",
          "type": "uint256",
          "indexed": false,
          "internalType": "uint256"
        }
      ],
      "anonymous": false
    },
    {
      "type": "event",
      "name": "TokenDeactivated",
      "inputs": [
        {
          "name": "token",
          "type": "address",
          "indexed": false,
          "internalType": "address"
        }
      ],
      "anonymous": false
    },
    {
      "type": "event",
      "name": "TokenEnrollmentInitiated",
      "inputs": [
        {
          "name": "token",
          "type": "address",
          "indexed": false,
          "internalType": "address"
        },
        {
          "name": "deploymentMsgHash",
          "type": "bytes32",
          "indexed": false,
          "internalType": "bytes32"
        }
      ],
      "anonymous": false
    },
    {
      "type": "event",
      "name": "Withdrawal",
      "inputs": [
        {
          "name": "recipient",
          "type": "address",
          "indexed": true,
          "internalType": "address"
        },
        {
          "name": "token",
          "type": "address",
          "indexed": true,
          "internalType": "address"
        },
        {
          "name": "amount",
          "type": "uint256",
          "indexed": false,
          "internalType": "uint256"
        }
      ],
      "anonymous": false
    },
    {
      "type": "event",
      "name": "WithdrawalLimitDisabled",
      "inputs": [
        {
          "name": "sender",
          "type": "address",
          "indexed": true,
          "internalType": "address"
        },
        {
          "name": "token",
          "type": "address",
          "indexed": true,
          "internalType": "address"
        }
      ],
      "anonymous": false
    },
    {
      "type": "event",
      "name": "WithdrawalLimitEnabled",
      "inputs": [
        {
          "name": "sender",
          "type": "address",
          "indexed": true,
          "internalType": "address"
        },
        {
          "name": "token",
          "type": "address",
          "indexed": true,
          "internalType": "address"
        }
      ],
      "anonymous": false
    }
  ],
  "bytecode": {
    "object": "0x60e06040524660011461001357600161001a565b64e8d4a510005b64ffffffffff1660805234801561003057600080fd5b503060a052600160c081905261004461004a565b506104dc565b336100558180610058565b50565b6100606101ab565b156100f6576001600160a01b03821660009081527fa5fdb349cc4ffac7e8ce7d3b075149d1bc847367d814e69a9beca89ef02db8b0602052604090205460ff166100f15760405162461bcd60e51b815260206004820152601960248201527f524f4c45535f414c52454144595f494e495449414c495a45440000000000000060448201526064015b60405180910390fd5b6100ff565b6100ff826101fd565b610107610332565b156101a2576001600160a01b03811660009081527f2c11a1f9c63817dbb9f0faa966615764d2db5d6e008269e948a99e0b52181c23602052604090205460ff1661019e5760405162461bcd60e51b815260206004820152602260248201527f53454355524954595f524f4c45535f414c52454144595f494e495449414c495a604482015261115160f21b60648201526084016100e8565b5050565b61019e81610381565b600080516020614f328339815191526000908152600080516020614f728339815191526020527fa5fdb349cc4ffac7e8ce7d3b075149d1bc847367d814e69a9beca89ef02db8b15481905b1415905090565b610215600080516020614f32833981519152826103e5565b61024c7ed2ead78c620e94b02d0a996e99298c59ddccfa1d8a0149080ac3a20de06068600080516020614f92833981519152610484565b610272600080516020614f92833981519152600080516020614f32833981519152610484565b61028a600080516020614f3283398151915280610484565b6102c27f023edb77f7c8cc9e38e8afe78954f703aeeda7fffe014eeb6e56ea84e62f6da7600080516020614f92833981519152610484565b6102fa7f0128d63adbf6b09002c26caf55c47e2f26635807e3ef1b027218aa74c8d61a3e600080516020614f92833981519152610484565b6100557f0251e864ca2a080f55bce5da2452e8cfcafdbc951a3e7fff5023d558452ec228600080516020614f32833981519152610484565b600080516020614f528339815191526000908152600080516020614f728339815191526020527f2c11a1f9c63817dbb9f0faa966615764d2db5d6e008269e948a99e0b52181c245481906101f6565b610399600080516020614f5283398151915280610484565b6103d17f037693ba312785932d430dccf0f56ffedd0aa7c0f8b6da2cc4530c2717689b96600080516020614f52833981519152610484565b610055600080516020614f52833981519152825b6000828152600080516020614f72833981519152602090815260408083206001600160a01b038516845290915290205460ff1661019e576000828152600080516020614f72833981519152602090815260408083206001600160a01b0385168085529252808320805460ff1916600117905551339285917f2f8788117e7eff1d82e926ec794901d17c78024a50270940304540a733656f0d9190a45050565b6000828152600080516020614f728339815191526020526040808220600101805490849055905190918391839186917fbd79b86ffe0ab8e8776151514217cd7cacd52c909f66475c3af44e129f0b00ff9190a4505050565b60805160a05160c051614a2761050b6000396000610f5501526000611115015260006134300152614a276000f3fe6080604052600436106103805760003560e01c80636ffed68b116101d1578063cb1cccce11610102578063deec9c5a116100a0578063eeb728661161006f578063eeb7286614610a31578063f3fef3a314610a53578063fa0f73ba14610a73578063fad8b32a14610a9357600080fd5b8063deec9c5a146109be578063e2bbb158146109de578063ed9ef16a146109f1578063ee0e680714610a1157600080fd5b8063d08fb6cb116100dc578063d08fb6cb1461093e578063d12fc1821461095e578063d2b51eea1461097e578063d9fa70911461099e57600080fd5b8063cb1cccce146108de578063cdd1f70d146108fe578063cf50fd1c1461091e57600080fd5b8063a2bdde3d1161016f578063af8bc15e11610149578063af8bc15e14610876578063b5cd0c3c1461088b578063be58b18e146108ab578063c1f5eb3a146108be57600080fd5b8063a2bdde3d14610823578063a6d1d6c614610843578063ad8b92b41461086357600080fd5b80637fc2ab3e116101ab5780637fc2ab3e146107a35780638101b64c146107c35780638e5224ff146107e35780639463629a1461080357600080fd5b80636ffed68b14610743578063757bd9ab146107635780637d22dbc71461078357600080fd5b806336568abe116102b65780635a5d1bb91161025457806369328dec1161022357806369328dec146106c35780636c04d9d5146106e35780636d70f7ae146107035780636fc97cbf1461072357600080fd5b80635a5d1bb91461064e5780635a72af891461066e5780636083e59a1461068e57806362a14376146106a357600080fd5b8063439fab9111610290578063439fab91146105d9578063496ae54c146105f95780634baf43da146106195780634d8b92a51461063957600080fd5b806336568abe146105795780633682a450146105995780633ea053eb146105b957600080fd5b806319534075116103235780632e1a7d4d116102fd5780632e1a7d4d146104d25780632f951985146104f257806330ccebb51461051257806333eeb1471461056557600080fd5b8063195340751461046f57806323205c5214610492578063284b920e146104b257600080fd5b80630e770f231161035f5780630e770f23146103fc5780630efe6a8b1461041c57806314af98b31461042f578063178963831461044f57600080fd5b8062f714ce146103855780630b3a2d21146103a75780630c6f8664146103c7575b600080fd5b34801561039157600080fd5b506103a56103a0366004613e35565b610ab3565b005b3480156103b357600080fd5b506103a56103c2366004613e65565b610ac9565b3480156103d357600080fd5b506103e76103e2366004613e65565b610ae4565b60405190151581526020015b60405180910390f35b34801561040857600080fd5b506103a5610417366004613e65565b610b45565b6103a561042a366004613e82565b610b5d565b34801561043b57600080fd5b506103a561044a366004613e65565b610c19565b34801561045b57600080fd5b506103a561046a366004613e65565b610cc1565b34801561047b57600080fd5b50610484610cd9565b6040519081526020016103f3565b34801561049e57600080fd5b506103a56104ad366004613eb7565b610ceb565b3480156104be57600080fd5b506103a56104cd366004613e65565b610de1565b3480156104de57600080fd5b506103a56104ed366004613ef2565b610ee8565b3480156104fe57600080fd5b506103a561050d366004613e65565b610efa565b34801561051e57600080fd5b5061055861052d366004613e65565b6001600160a01b03166000908152600080516020614948833981519152602052604090205460ff1690565b6040516103f39190613f21565b34801561057157600080fd5b5060006103e7565b34801561058557600080fd5b506103a5610594366004613e35565b610f3b565b3480156105a557600080fd5b506103a56105b4366004613e65565b610fcd565b3480156105c557600080fd5b506103a56105d4366004613e65565b610fe5565b3480156105e557600080fd5b506103a56105f4366004613f49565b611112565b34801561060557600080fd5b50610484610614366004613e65565b6112c3565b34801561062557600080fd5b50610484610634366004613e65565b61130a565b34801561064557600080fd5b50610484611349565b34801561065a57600080fd5b506103e7610669366004613e65565b611353565b34801561067a57600080fd5b506103a5610689366004613e65565b61136d565b34801561069a57600080fd5b50600019610484565b3480156106af57600080fd5b506103a56106be366004613e65565b611412565b3480156106cf57600080fd5b506103a56106de366004613fbd565b61142a565b3480156106ef57600080fd5b506103e76106fe366004613e65565b611517565b34801561070f57600080fd5b506103e761071e366004613e65565b611531565b34801561072f57600080fd5b506103a561073e366004613e65565b61154b565b34801561074f57600080fd5b506103a561075e366004613fff565b611563565b34801561076f57600080fd5b506103e761077e366004613e65565b6116b5565b34801561078f57600080fd5b506103a561079e366004613fff565b6116cf565b3480156107af57600080fd5b506103a56107be366004613ef2565b611829565b3480156107cf57600080fd5b506103a56107de366004613e65565b61194e565b3480156107ef57600080fd5b506103e76107fe366004613e65565b61198f565b34801561080f57600080fd5b506103a561081e366004613e65565b6119a9565b34801561082f57600080fd5b506103e761083e366004613e65565b6119c1565b34801561084f57600080fd5b506103a561085e366004613eb7565b6119db565b6103a5610871366004613e65565b611abc565b34801561088257600080fd5b50610484611af2565b34801561089757600080fd5b506103a56108a6366004614077565b611afc565b6103a56108b93660046140e9565b611c33565b3480156108ca57600080fd5b506103a56108d9366004613e65565b611d46565b3480156108ea57600080fd5b506103e76108f9366004613e65565b611e42565b34801561090a57600080fd5b506103a5610919366004613e65565b611e5c565b34801561092a57600080fd5b506103a5610939366004614077565b611e74565b34801561094a57600080fd5b506103e7610959366004613e65565b611f90565b34801561096a57600080fd5b506103a5610979366004613e65565b611faa565b34801561098a57600080fd5b506103a5610999366004614153565b6121cf565b3480156109aa57600080fd5b506103a56109b9366004613e65565b6122d8565b3480156109ca57600080fd5b506103a56109d9366004613e65565b6122f0565b6103a56109ec36600461417f565b612308565b3480156109fd57600080fd5b506103a5610a0c366004613e65565b6123bb565b348015610a1d57600080fd5b506103a5610a2c366004613e65565b6123d3565b348015610a3d57600080fd5b50610a46612414565b6040516103f391906141c5565b348015610a5f57600080fd5b506103a5610a6e366004614153565b612434565b348015610a7f57600080fd5b506103a5610a8e366004613e65565b61243f565b348015610a9f57600080fd5b506103a5610aae366004613e65565b612457565b610ac5610abe61246f565b838361142a565b5050565b610ae16000805160206149b183398151915282612492565b50565b6001600160a01b0381166000908152600080516020614948833981519152602052604081205460ff166001816003811115610b2157610b21613f0b565b1480610b3e57506002816003811115610b3c57610b3c613f0b565b145b9392505050565b610ae160008051602061486e83398151915282612492565b82610b6781610ae4565b610bad5760405162461bcd60e51b81526020600482015260126024820152711513d2d15397d393d517d4d154959250d15160721b60448201526064015b60405180910390fd5b6040805160008082526020820190925290610bc886866124b3565b90506000610be8878787866000805160206149288339815191528761256c565b9050610c078787878660008051602061492883398151915286886126f5565b610c1087611faa565b50505050505050565b610c22336116b5565b610c645760405162461bcd60e51b815260206004820152601360248201527213d3931657d4d150d55492551657d051d15395606a1b6044820152606401610ba4565b6001600160a01b03811660008181526000805160206149488339815191526020526040808220600401805460ff191660011790555133917fe2deca319add01142d26def2de47e64bf1fdc70e6f90c13a1862a48bdaaa7cfd91a350565b610ae160008051602061488e83398151915282612492565b6000610ce661063461246f565b905090565b610cf361280a565b6001600160a01b0316636170ff1b610d0961282d565b600080516020614928833981519152610d23888888612850565b856040518563ffffffff1660e01b8152600401610d43949392919061424a565b6020604051808303816000875af1158015610d62573d6000803e3d6000fd5b505050506040513d601f19601f82011682018060405250810190610d86919061427a565b50610d9284843361287b565b604080518481526020810183905283916001600160a01b0387169133917f50485fb0face2cfd73784044ab4191986b4a6713f01854414e2331a6bb41837d91015b60405180910390a450505050565b610df96000805160206147608339815191523361288e565b610e3d5760405162461bcd60e51b8152602060048201526015602482015274474f5645524e414e43455f41444d494e5f4f4e4c5960581b6044820152606401610ba4565b6001600160a01b03811660008181527f45f38e273862f8834bd2fe7a449988f63de55a7a5b685dea46ccedeb69cf0e266020818152604092839020805460ff191660011790557f45f38e273862f8834bd2fe7a449988f63de55a7a5b685dea46ccedeb69cf0e2780546001600160a01b03191690559151928352917fcfb473e6c03f9a29ddaf990e736fa3de5188a0bd85d684f5b6e164ebfbfff5d291015b60405180910390a15050565b610ae1610ef361246f565b823361142a565b80336001600160a01b03821603610f235760405162461bcd60e51b8152600401610ba490614293565b610ac560008051602061488e833981519152836128c6565b60008051602061476083398151915282148015610f7657507f0000000000000000000000000000000000000000000000000000000000000000155b15610fc35760405162461bcd60e51b815260206004820181905260248201527f43414e4e4f545f52454e4f554e43455f474f5645524e414e43455f41444d494e6044820152606401610ba4565b610ac582826128e2565b610ae160008051602061496883398151915282612492565b33610fee61295c565b6001600160a01b0316146110335760405162461bcd60e51b815260206004820152600c60248201526b27a7262cafa6a0a720a3a2a960a11b6044820152606401610ba4565b6001600160a01b0381166000908152600080516020614948833981519152602052604081205460ff16600381111561106d5761106d613f0b565b036110aa5760405162461bcd60e51b815260206004820152600d60248201526c2aa725a727aba72faa27a5a2a760991b6044820152606401610ba4565b6001600160a01b03811660008181526000805160206149488339815191526020908152604091829020805460ff1916600317905590519182527f86d6e4556eae726303caf49a75add7d92ac713e46db458dab0622aa263fb48e691015b60405180910390a150565b307f00000000000000000000000000000000000000000000000000000000000000006001600160a01b0316036111835760405162461bcd60e51b81526020600482015260166024820152751112549150d517d0d0531317d11254d0531313d5d15160521b6044820152606401610ba4565b60006111908160206142d9565b9050600061119f8260206142f0565b9050808310156111e75760405162461bcd60e51b81526020600482015260136024820152721253925517d110551057d513d3d7d4d3505313606a1b6044820152606401610ba4565b60006111f582848688614303565b8101906112029190613e65565b90503660006112138582888a614303565b915091503660006112268887818c614303565b90925090506001600160a01b038516156112505761124585838361297f565b505050505050505050565b611258612ac1565b156112a75780156112a25760405162461bcd60e51b8152602060048201526014602482015273554e45585045435445445f494e49545f4441544160601b6044820152606401610ba4565b611245565b6112b18282612adc565b6112bb8282612bf4565b611245612c23565b6001600160a01b0381166000908152600080516020614948833981519152602052604081206004015460ff166112fb57600019611304565b61130482612c2e565b92915050565b6001600160a01b03811660009081526000805160206149488339815191526020526040812060030154801561133f5780610b3e565b6000199392505050565b6000610ce6612c4f565b60006113046000805160206147c78339815191528361288e565b61137633611f90565b6113b85760405162461bcd60e51b815260206004820152601360248201527227a7262cafa9a2a1aaa924aa2cafa0a226a4a760691b6044820152606401610ba4565b6001600160a01b03811660008181526000805160206149488339815191526020526040808220600401805460ff191690555133917f109dee66091b7a145f557f52c55d7beccb6a29011fc705557e2975749474076b91a350565b610ae160008051602061478083398151915282612492565b6001600160a01b0381166114745760405162461bcd60e51b81526020600482015260116024820152701253959053125117d49150d25412515395607a1b6044820152606401610ba4565b61147f838383612c63565b6001600160a01b0383166000908152600080516020614948833981519152602052604090206004015460ff16156114ba576114ba8383612f80565b6114c583838361287b565b826001600160a01b0316816001600160a01b03167f2717ead6b9200dd235aad468c9809ea400fe33ac69b5bfaa6d3e90fc922b63988460405161150a91815260200190565b60405180910390a3505050565b60006113046000805160206147e78339815191528361288e565b60006113046000805160206149688339815191528361288e565b610ae16000805160206147e783398151915282612492565b803361156d612ff0565b600083815260209190915260409020546001600160a01b0316146115c45760405162461bcd60e51b815260206004820152600e60248201526d27a7262cafa222a827a9a4aa27a960911b6044820152606401610ba4565b6115cc61280a565b6001600160a01b0316637a98660b6115e261282d565b7f02d757788a8d8d6f21d1cd40bce38a8222d70654214e96ff95d8086e684fbee561160d8888613013565b866040518563ffffffff1660e01b815260040161162d949392919061424a565b6020604051808303816000875af115801561164c573d6000803e3d6000fd5b505050506040513d601f19601f82011682018060405250810190611670919061427a565b506040805185815260208101849052849133917fea57f52faafe318751f75acb6756cff3f66afc10201ef8f2d504e788985db3f591015b60405180910390a350505050565b600061130460008051602061486e8339815191528361288e565b80336116d9612ff0565b600083815260209190915260409020546001600160a01b0316146117305760405162461bcd60e51b815260206004820152600e60248201526d27a7262cafa222a827a9a4aa27a960911b6044820152606401610ba4565b61173861280a565b6001600160a01b0316636170ff1b61174e61282d565b7f02d757788a8d8d6f21d1cd40bce38a8222d70654214e96ff95d8086e684fbee56117798888613013565b866040518563ffffffff1660e01b8152600401611799949392919061424a565b6020604051808303816000875af11580156117b8573d6000803e3d6000fd5b505050506040513d601f19601f820116820180604052508101906117dc919061427a565b506117ef6117e861246f565b853361287b565b6040805185815260208101849052849133917fb0b548d5e12b6a60adac4d6dd7610f55134cea4fd145535edc303a48063e0cb491016116a7565b61183233611353565b6118725760405162461bcd60e51b815260206004820152601160248201527027a7262cafa0a8282fa3a7ab22a92727a960791b6044820152606401610ba4565b61187a612ac1565b6118c65760405162461bcd60e51b815260206004820152601860248201527f434f4e54524143545f4e4f545f494e495449414c495a454400000000000000006044820152606401610ba4565b6118cf816130bb565b6119155760405162461bcd60e51b81526020600482015260176024820152764c325f414444524553535f4f55545f4f465f52414e474560481b6044820152606401610ba4565b61191e816130de565b6040518181527f90fc3f39f8e4669d1bf5f9038707949f8af42a973f62988143be0fa7c3997f1890602001611107565b80336001600160a01b038216036119775760405162461bcd60e51b8152600401610ba490614293565b610ac5600080516020614780833981519152836128c6565b600061130460008051602061488e8339815191528361288e565b610ae160008051602061476083398151915282612492565b60006113046000805160206149b18339815191528361288e565b6119e361280a565b6001600160a01b0316637a98660b6119f961282d565b600080516020614928833981519152611a13888888612850565b856040518563ffffffff1660e01b8152600401611a33949392919061424a565b6020604051808303816000875af1158015611a52573d6000803e3d6000fd5b505050506040513d601f19601f82011682018060405250810190611a76919061427a565b50604080518481526020810183905283916001600160a01b0387169133917f8f3da3ce93acd45e015b069c8f032d37be93dc9efcaaeda368aa9ca74f64c30a9101610dd3565b60405162461bcd60e51b815260206004820152600b60248201526a155394d5541413d495115160aa1b6044820152606401610ba4565b6000610ce6613100565b611b0461280a565b6001600160a01b0316636170ff1b611b1a61282d565b60008051602061484e833981519152611b6a8a8a8a60018b8b8080602002602001604051908101604052809392919081815260200183836020028082843760009201919091525061311392505050565b856040518563ffffffff1660e01b8152600401611b8a949392919061424a565b6020604051808303816000875af1158015611ba9573d6000803e3d6000fd5b505050506040513d601f19601f82011682018060405250810190611bcd919061427a565b50611bd986863361287b565b83866001600160a01b0316336001600160a01b03167fa465a02eedf06ceffd1d99159ad98c5d8fa7f17b870eb22e0bfcec06398a8f7388878787604051611c23949392919061432d565b60405180910390a4505050505050565b84611c3d81610ae4565b611c7e5760405162461bcd60e51b81526020600482015260126024820152711513d2d15397d393d517d4d154959250d15160721b6044820152606401610ba4565b6000611c8a87876124b3565b90506000611cdf88888888888080602002602001604051908101604052809392919081815260200183836020028082843760009201919091525060008051602061484e833981519152925089915061256c9050565b9050611d3388888888888080602002602001604051908101604052809392919081815260200183836020028082843760009201919091525060008051602061484e83398151915292508891508990506126f5565b611d3c88611faa565b5050505050505050565b611d5e6000805160206147608339815191523361288e565b611da25760405162461bcd60e51b8152602060048201526015602482015274474f5645524e414e43455f41444d494e5f4f4e4c5960581b6044820152606401610ba4565b6001600160a01b03811660008181527f45f38e273862f8834bd2fe7a449988f63de55a7a5b685dea46ccedeb69cf0e266020818152604092839020805460ff191690557f45f38e273862f8834bd2fe7a449988f63de55a7a5b685dea46ccedeb69cf0e2780546001600160a01b03191690559151928352917fd75f94825e770b8b512be8e74759e252ad00e102e38f50cce2f7c6f868a295999101610edc565b60006113046000805160206147608339815191528361288e565b610ae16000805160206147c783398151915282612492565b611e7c61280a565b6001600160a01b0316637a98660b611e9261282d565b60008051602061484e833981519152611ee28a8a8a60018b8b8080602002602001604051908101604052809392919081815260200183836020028082843760009201919091525061311392505050565b856040518563ffffffff1660e01b8152600401611f02949392919061424a565b6020604051808303816000875af1158015611f21573d6000803e3d6000fd5b505050506040513d601f19601f82011682018060405250810190611f45919061427a565b5083866001600160a01b0316336001600160a01b03167f889e470f207032611b2f68dbd2124e3139794f19a6b536c83892fd505760386088878787604051611c23949392919061432d565b60006113046000805160206147808339815191528361288e565b6001600160a01b03811660009081526000805160206149488339815191526020526040902054819060019060ff166003811115611fe957611fe9613f0b565b14611ff2575050565b6001600160a01b038216600090815260008051602061494883398151915260205260409020600181015461202461280a565b6001600160a01b03166377c7d7a9826040518263ffffffff1660e01b815260040161205191815260200190565b602060405180830381865afa15801561206e573d6000803e3d6000fd5b505050506040513d601f19601f82011682018060405250810190612092919061427a565b6000036120a957815460ff191660021782556121c9565b81600201544211156121c9576001600160a01b038416600090815260008051602061494883398151915260205260408120805460ff19908116825560018201839055600282018390556003820183905560049091018054909116905561210d61295c565b6001600160a01b0316635ab1bd536040518163ffffffff1660e01b8152600401602060405180830381865afa15801561214a573d6000803e3d6000fd5b505050506040513d601f19601f8201168201806040525081019061216e9190614373565b604051630caca05160e31b81526001600160a01b03878116600483015291925090821690636565028890602401600060405180830381600087803b1580156121b557600080fd5b505af1158015611245573d6000803e3d6000fd5b50505050565b6121d833611353565b6122185760405162461bcd60e51b815260206004820152601160248201527027a7262cafa0a8282fa3a7ab22a92727a960791b6044820152606401610ba4565b806000036122685760405162461bcd60e51b815260206004820152601960248201527f494e56414c49445f4d41585f544f54414c5f42414c414e4345000000000000006044820152606401610ba4565b816001600160a01b03167fb895637c7d86c9b7b5b747e72195206a3fc21d8df0e019edd2312454ffa733b1826040516122a391815260200190565b60405180910390a26001600160a01b039190911660009081526000805160206149488339815191526020526040902060030155565b610ae160008051602061486e833981519152826128c6565b610ae16000805160206147c7833981519152826128c6565b604080516000808252602082019092529061232161246f565b9050600061232f82866124b3565b9050600061234f838787876000805160206149288339815191528761256c565b905061236e8387878760008051602061492883398151915286886126f5565b6040805187815260208101839052908101839052859033907f5b5dbc6c64043a15d3fe6943a6e443a826b78755edc257b2ec890c022225dbcf9060600160405180910390a3505050505050565b610ae16000805160206147e7833981519152826128c6565b80336001600160a01b038216036123fc5760405162461bcd60e51b8152600401610ba490614293565b610ac5600080516020614760833981519152836128c6565b60606040518060600160405280602181526020016149d160219139905090565b610ac582823361142a565b610ae16000805160206149b1833981519152826128c6565b610ae1600080516020614968833981519152826128c6565b6000610ce660405180606001604052806029815260200161498860299139613358565b61249b8261338c565b6124a4816133ae565b6124ae83836133b8565b505050565b6000813410156124fa5760405162461bcd60e51b8152602060048201526012602482015271494e53554646494349454e545f56414c554560701b6044820152606401610ba4565b60006125068334614390565b90506125118161342e565b61251d6245544861130a565b6125278247614390565b1115610b3e5760405162461bcd60e51b815260206004820152601460248201527313505617d09053105390d157d15610d15151115160621b6044820152606401610ba4565b600061257661282d565b6000036125b95760405162461bcd60e51b8152602060048201526011602482015270130c97d094925111d157d393d517d4d155607a1b6044820152606401610ba4565b600086116125f85760405162461bcd60e51b815260206004820152600c60248201526b16915493d7d1115413d4d25560a21b6044820152606401610ba4565b612601856130bb565b6126475760405162461bcd60e51b81526020600482015260176024820152764c325f414444524553535f4f55545f4f465f52414e474560481b6044820152606401610ba4565b60008051602061484e8339815191528314600061266261280a565b6001600160a01b0316633e3aa6c58561267961282d565b886126878e8e8e8a8f613113565b6040518563ffffffff1660e01b81526004016126a5939291906143a3565b604080518083038185885af11580156126c2573d6000803e3d6000fd5b50505050506040513d601f19601f820116820180604052508101906126e791906143c2565b9a9950505050505050505050565b600080516020614928833981519152830361275f57604080518781526020810184905290810182905285906001600160a01b0389169033907f5f971bd00bf3ffbca8a6d72cdd4fd92cfd4f62636161921d1e5a64f0b64ccb6d9060600160405180910390a4610c10565b60008051602061484e83398151915283146127af5760405162461bcd60e51b815260206004820152601060248201526f2aa725a727aba72fa9a2a622a1aa27a960811b6044820152606401610ba4565b84876001600160a01b0316336001600160a01b03167f2203a49c69f1a46c1164f5e4a30643dd77b7c59c0ff9bc433256048365c247f1898887876040516127f994939291906143e6565b60405180910390a450505050505050565b6000610ce660405180606001604052806028815260200161473860289139613358565b6000610ce660405180606001604052806027815260200161482760279139613358565b6040805160008082526020820190925260609150612872858585600085613113565b95945050505050565b6124ae6001600160a01b038216836134e3565b6000918252600080516020614807833981519152602090815260408084206001600160a01b0393909316845291905290205460ff1690565b6128cf8261338c565b6128d8816133ae565b6124ae8383613588565b6001600160a01b03811633146129525760405162461bcd60e51b815260206004820152602f60248201527f416363657373436f6e74726f6c3a2063616e206f6e6c792072656e6f756e636560448201526e103937b632b9903337b91039b2b63360891b6064820152608401610ba4565b610ac58282613588565b6000610ce66040518060600160405280602681526020016148ae60269139613358565b6001600160a01b0383163b6129cb5760405162461bcd60e51b8152602060048201526012602482015271115250d7d393d517d057d0d3d395149050d560721b6044820152606401610ba4565b600080846001600160a01b031663439fab9160e01b85856040516024016129f3929190614412565b60408051601f198184030181529181526020820180516001600160e01b03166001600160e01b0319909416939093179092529051612a319190614441565b600060405180830381855af49150503d8060008114612a6c576040519150601f19603f3d011682016040523d82523d6000602084013e612a71565b606091505b5091509150818190612a965760405162461bcd60e51b8152600401610ba491906141c5565b508051819015612ab95760405162461bcd60e51b8152600401610ba491906141c5565b505050505050565b600080612acc61280a565b6001600160a01b03161415905090565b60408114612b205760405162461bcd60e51b8152602060048201526011602482015270494c4c4547414c5f444154415f53495a4560781b6044820152606401610ba4565b600080612b2f8385018561445d565b91509150612b46816001600160a01b03163b151590565b612b9d5760405162461bcd60e51b815260206004820152602260248201527f494e56414c49445f4d4553534147494e475f434f4e54524143545f4144445245604482015261535360f01b6064820152608401610ba4565b6001600160a01b0382163b6121c95760405162461bcd60e51b815260206004820181905260248201527f494e56414c49445f4d414e414745525f434f4e54524143545f414444524553536044820152606401610ba4565b600080612c038385018561445d565b91509150612c10816135fc565b612c198261361e565b6121c96005613640565b33610ae18180613662565b6000612c3982613766565b612c465761130482613795565b61130482613848565b6000610ce664012a05f200620186a06142d9565b612c6b61282d565b600003612cae5760405162461bcd60e51b8152602060048201526011602482015270130c97d094925111d157d393d517d4d155607a1b6044820152606401610ba4565b6001600160a01b03811660006001612cc860806002614572565b612cd29190614390565b60408051600580825260c082019092529186169250608086901c916000916020820160a080368337019050509050600081600081518110612d1557612d1561457e565b6020026020010181815250508381600181518110612d3557612d3561457e565b602002602001018181525050866001600160a01b031681600281518110612d5e57612d5e61457e565b6020026020010181815250508281600381518110612d7e57612d7e61457e565b6020026020010181815250508181600481518110612d9e57612d9e61457e565b602002602001018181525050612db261280a565b6001600160a01b0316632c9dd5c0612dc861282d565b836040518363ffffffff1660e01b8152600401612de6929190614594565b6020604051808303816000875af1925050508015612e21575060408051601f3d908101601f19168201909252612e1e9181019061427a565b60015b611d3c57612e2d6145ad565b806308c379a003612f745750612e41614604565b80612e4c5750612f76565b60408051600480825260a082019092529060208201608080368337019050509150600082600081518110612e8257612e8261457e565b6020026020010181815250508482600181518110612ea257612ea261457e565b6020026020010181815250508382600281518110612ec257612ec261457e565b6020026020010181815250508282600381518110612ee257612ee261457e565b602002602001018181525050612ef661280a565b6001600160a01b0316632c9dd5c0612f0c61282d565b846040518363ffffffff1660e01b8152600401612f2a929190614594565b6020604051808303816000875af1158015612f49573d6000803e3d6000fd5b505050506040513d601f19601f82011682018060405250810190612f6d919061427a565b5050610c10565b505b3d6000803e3d6000fd5b6000612f8b83612c2e565b905081811015612fdd5760405162461bcd60e51b815260206004820152601d60248201527f455843454544535f474c4f42414c5f57495448445241575f4c494d49540000006044820152606401610ba4565b6124ae83612feb8484614390565b613878565b6000610ce66040518060600160405280602981526020016148ff602991396138ab565b6040805160038082526080820190925260609160009190602082018480368337019050509050828160008151811061304d5761304d61457e565b6020908102919091010152600161306660806002614572565b6130709190614390565b8416816001815181106130855761308561457e565b602002602001018181525050608084901c816002815181106130a9576130a961457e565b60209081029190910101529392505050565b60008115801590611304575061130482600167080000000000001160c01b011190565b610ae160405180606001604052806027815260200161482760279139826138de565b6000610ce664012a05f200614e206142d9565b606060008361312357600561312f565b61312f600160056142f0565b9050600083518261314091906142f0565b67ffffffffffffffff811115613158576131586141f8565b604051908082528060200260200182016040528015613181578160200160208202803683370190505b509050876001600160a01b0316816000815181106131a1576131a161457e565b602002602001018181525050336001600160a01b0316816001815181106131ca576131ca61457e565b60200260200101818152505085816002815181106131ea576131ea61457e565b6020908102919091010152600161320360806002614572565b61320d9190614390565b8716816003815181106132225761322261457e565b602002602001018181525050608087901c816004815181106132465761324661457e565b602002602001018181525050841561334d57835181613266600185614390565b815181106132765761327661457e565b60200260200101818152505060005b845181101561334b576132be8582815181106132a3576132a361457e565b6020026020010151600167080000000000001160c01b011190565b6133015760405162461bcd60e51b8152602060048201526014602482015273494e56414c49445f4d4553534147455f4441544160601b6044820152606401610ba4565b8481815181106133135761331361457e565b602002602001015182848361332891906142f0565b815181106133385761333861457e565b6020908102919091010152600101613285565b505b979650505050505050565b6000808260405160200161336c9190614441565b60408051601f198184030181529190528051602090910120549392505050565b6000908152600080516020614807833981519152602052604090206001015490565b610ae1813361392c565b6133c2828261288e565b610ac5576000828152600080516020614807833981519152602090815260408083206001600160a01b0385168085529252808320805460ff1916600117905551339285917f2f8788117e7eff1d82e926ec794901d17c78024a50270940304540a733656f0d9190a45050565b7f00000000000000000000000000000000000000000000000000000000000000008110156134975760405162461bcd60e51b8152602060048201526016602482015275494e53554646494349454e545f4645455f56414c554560501b6044820152606401610ba4565b662386f26fc10000811115610ae15760405162461bcd60e51b815260206004820152601260248201527108c8a8abeac8298aa8abea89e9ebe90928e960731b6044820152606401610ba4565b806000036134ef575050565b6000826001600160a01b03168260405160006040518083038185875af1925050503d806000811461353c576040519150601f19603f3d011682016040523d82523d6000602084013e613541565b606091505b50509050806124ae5760405162461bcd60e51b815260206004820152601360248201527211551217d514905394d1915497d19052531151606a1b6044820152606401610ba4565b613592828261288e565b15610ac5576000828152600080516020614807833981519152602090815260408083206001600160a01b0385168085529252808320805460ff1916905551339285917ff6391f5c32d9c69d2a47ea670b442974b53935d1edc7fd64eb21e047a839171b9190a45050565b610ae16040518060600160405280602881526020016147386028913982613990565b610ae16040518060600160405280602681526020016148ae6026913982613990565b610ae16040518060600160405280602b81526020016148d4602b9139826139df565b61366a613a12565b156136d8576136876000805160206147608339815191528361288e565b6136d35760405162461bcd60e51b815260206004820152601960248201527f524f4c45535f414c52454144595f494e495449414c495a4544000000000000006044820152606401610ba4565b6136e1565b6136e182613a33565b6136e9613b21565b1561375d576137066000805160206147808339815191528261288e565b610ac55760405162461bcd60e51b815260206004820152602260248201527f53454355524954595f524f4c45535f414c52454144595f494e495449414c495a604482015261115160f21b6064820152608401610ba4565b610ac581613b3b565b6000613770613b91565b600061377b84613bb4565b815260200190815260200160002054600014159050919050565b60008062455447196001600160a01b038416016137b357504761381e565b6040516370a0823160e01b81523060048201526001600160a01b038416906370a0823190602401602060405180830381865afa1580156137f7573d6000803e3d6000fd5b505050506040513d601f19601f8201168201806040525081019061381b919061427a565b90505b6000613828613c01565b9050606461383682846142d9565b6138409190614689565b949350505050565b60006001613854613b91565b600061385f85613bb4565b8152602001908152602001600020546113049190614390565b6138836001826142f0565b61388b613b91565b600061389685613bb4565b81526020810191909152604001600020555050565b600080826040516020016138bf9190614441565b60408051601f1981840301815291905280516020909101209392505050565b6138e782613358565b156139225760405162461bcd60e51b815260206004820152600b60248201526a1053149150511657d4d15560aa1b6044820152606401610ba4565b610ac582826139df565b613936828261288e565b610ac55761394e816001600160a01b03166014613c24565b613959836020613c24565b60405160200161396a9291906146ab565b60408051601f198184030181529082905262461bcd60e51b8252610ba4916004016141c5565b600061399b83613358565b6001600160a01b0316146139225760405162461bcd60e51b815260206004820152600b60248201526a1053149150511657d4d15560aa1b6044820152606401610ba4565b6000826040516020016139f29190614441565b604051602081830303815290604052805190602001209050818155505050565b600080613a2c60008051602061476083398151915261338c565b1415905090565b613a4b600080516020614760833981519152826133b8565b613a716000805160206147c783398151915260008051602061488e833981519152613dc0565b613a9760008051602061488e833981519152600080516020614760833981519152613dc0565b613aaf60008051602061476083398151915280613dc0565b613ad560008051602061496883398151915260008051602061488e833981519152613dc0565b613afb6000805160206149b183398151915260008051602061488e833981519152613dc0565b610ae16000805160206147e7833981519152600080516020614760833981519152613dc0565b600080613a2c60008051602061478083398151915261338c565b613b5360008051602061478083398151915280613dc0565b613b7960008051602061486e833981519152600080516020614780833981519152613dc0565b610ae1600080516020614780833981519152826133b8565b6000610ce66040518060600160405280602781526020016147a0602791396138ab565b600080613bc46201518042614689565b604080516001600160a01b038616602082015290810182905290915060600160405160208183030381529060405280519060200120915050919050565b6000610ce66040518060600160405280602b81526020016148d4602b9139613358565b60606000613c338360026142d9565b613c3e9060026142f0565b67ffffffffffffffff811115613c5657613c566141f8565b6040519080825280601f01601f191660200182016040528015613c80576020820181803683370190505b509050600360fc1b81600081518110613c9b57613c9b61457e565b60200101906001600160f81b031916908160001a905350600f60fb1b81600181518110613cca57613cca61457e565b60200101906001600160f81b031916908160001a9053506000613cee8460026142d9565b613cf99060016142f0565b90505b6001811115613d71576f181899199a1a9b1b9c1cb0b131b232b360811b85600f1660108110613d2d57613d2d61457e565b1a60f81b828281518110613d4357613d4361457e565b60200101906001600160f81b031916908160001a90535060049490941c93613d6a81614720565b9050613cfc565b508315610b3e5760405162461bcd60e51b815260206004820181905260248201527f537472696e67733a20686578206c656e67746820696e73756666696369656e746044820152606401610ba4565b6000613dcb8361338c565b60008481526000805160206148078339815191526020526040808220600101859055519192508391839186917fbd79b86ffe0ab8e8776151514217cd7cacd52c909f66475c3af44e129f0b00ff9190a4505050565b6001600160a01b0381168114610ae157600080fd5b60008060408385031215613e4857600080fd5b823591506020830135613e5a81613e20565b809150509250929050565b600060208284031215613e7757600080fd5b8135610b3e81613e20565b600080600060608486031215613e9757600080fd5b8335613ea281613e20565b95602085013595506040909401359392505050565b60008060008060808587031215613ecd57600080fd5b8435613ed881613e20565b966020860135965060408601359560600135945092505050565b600060208284031215613f0457600080fd5b5035919050565b634e487b7160e01b600052602160045260246000fd5b6020810160048310613f4357634e487b7160e01b600052602160045260246000fd5b91905290565b60008060208385031215613f5c57600080fd5b823567ffffffffffffffff811115613f7357600080fd5b8301601f81018513613f8457600080fd5b803567ffffffffffffffff811115613f9b57600080fd5b856020828401011115613fad57600080fd5b6020919091019590945092505050565b600080600060608486031215613fd257600080fd5b8335613fdd81613e20565b9250602084013591506040840135613ff481613e20565b809150509250925092565b60008060006060848603121561401457600080fd5b505081359360208301359350604090920135919050565b60008083601f84011261403d57600080fd5b50813567ffffffffffffffff81111561405557600080fd5b6020830191508360208260051b850101111561407057600080fd5b9250929050565b60008060008060008060a0878903121561409057600080fd5b863561409b81613e20565b95506020870135945060408701359350606087013567ffffffffffffffff8111156140c557600080fd5b6140d189828a0161402b565b979a9699509497949695608090950135949350505050565b60008060008060006080868803121561410157600080fd5b853561410c81613e20565b94506020860135935060408601359250606086013567ffffffffffffffff81111561413657600080fd5b6141428882890161402b565b969995985093965092949392505050565b6000806040838503121561416657600080fd5b823561417181613e20565b946020939093013593505050565b6000806040838503121561419257600080fd5b50508035926020909101359150565b60005b838110156141bc5781810151838201526020016141a4565b50506000910152565b60208152600082518060208401526141e48160408501602087016141a1565b601f01601f19169190910160400192915050565b634e487b7160e01b600052604160045260246000fd5b600081518084526020840193506020830160005b82811015614240578151865260209586019590910190600101614222565b5093949350505050565b848152836020820152608060408201526000614269608083018561420e565b905082606083015295945050505050565b60006020828403121561428c57600080fd5b5051919050565b60208082526016908201527521a0a72727aa2fa822a92327a926afa7a72fa9a2a62360511b604082015260600190565b634e487b7160e01b600052601160045260246000fd5b8082028115828204841417611304576113046142c3565b80820180821115611304576113046142c3565b6000808585111561431357600080fd5b8386111561432057600080fd5b5050820193919092039150565b848152606060208201819052810183905260006001600160fb1b0384111561435457600080fd5b8360051b80866080850137604083019390935250016080019392505050565b60006020828403121561438557600080fd5b8151610b3e81613e20565b81810381811115611304576113046142c3565b838152826020820152606060408201526000612872606083018461420e565b600080604083850312156143d557600080fd5b505080516020909101519092909150565b8481526080602082015260006143ff608083018661420e565b6040830194909452506060015292915050565b60208152816020820152818360408301376000818301604090810191909152601f909201601f19160101919050565b600082516144538184602087016141a1565b9190910192915050565b6000806040838503121561447057600080fd5b823561447b81613e20565b91506020830135613e5a81613e20565b6001815b60018411156144c6578085048111156144aa576144aa6142c3565b60018416156144b857908102905b60019390931c92800261448f565b935093915050565b6000826144dd57506001611304565b816144ea57506000611304565b8160018114614500576002811461450a57614526565b6001915050611304565b60ff84111561451b5761451b6142c3565b50506001821b611304565b5060208310610133831016604e8410600b8410161715614549575081810a611304565b614556600019848461448b565b806000190482111561456a5761456a6142c3565b029392505050565b6000610b3e83836144ce565b634e487b7160e01b600052603260045260246000fd5b828152604060208201526000613840604083018461420e565b600060033d11156145c65760046000803e5060005160e01c5b90565b601f8201601f1916810167ffffffffffffffff811182821017156145fd57634e487b7160e01b600052604160045260246000fd5b6040525050565b600060443d10156146125790565b6040513d600319016004823e80513d602482011167ffffffffffffffff8211171561463c57505090565b808201805167ffffffffffffffff811115614658575050505090565b3d8401600319018282016020011115614672575050505090565b614681602082850101856145c9565b509392505050565b6000826146a657634e487b7160e01b600052601260045260246000fd5b500490565b7f416363657373436f6e74726f6c3a206163636f756e74200000000000000000008152600083516146e38160178501602088016141a1565b7001034b99036b4b9b9b4b733903937b6329607d1b60179184019182015283516147148160288401602088016141a1565b01602801949350505050565b60008161472f5761472f6142c3565b50600019019056fe535441524b4e45545f544f4b454e5f4252494447455f4d4553534147494e475f434f4e545241435403711c9d994faf6055172091cb841fd4831aa743e6f3315163b06a122c841846026bd110619d11cfdfc28e281df893bc24828e89177318e9dbd860cdaedeb6b357495448445241574c5f4c494d49545f494e5452414441595f51554f54415f534c4f545f54414700d2ead78c620e94b02d0a996e99298c59ddccfa1d8a0149080ac3a20de060680251e864ca2a080f55bce5da2452e8cfcafdbc951a3e7fff5023d558452ec22853e43b954ba190a7e49386f1f78b01dcd9f628db23f432fa029a7dfd6d98e8fb535441524b4e45545f544f4b454e5f4252494447455f4c325f544f4b454e5f434f4e5452414354008bce41827dd5484d80312a2e43bc42a896e3fcf75bf84c2b49339168dfa00a037693ba312785932d430dccf0f56ffedd0aa7c0f8b6da2cc4530c2717689b9603e615638e0b79444a70f8c695bf8f2a47033bf1cf95691ec3130f64939cee99535441524b4e45545f544f4b454e5f4252494447455f4d414e414745525f534c4f545f54414757495448445241574c5f4c494d49545f57495448445241575f4c494d49545f5043545f534c4f545f544147535441524b4e45545f544f4b454e5f4252494447455f4445504f5349544f525f41444452455353455301b64b1b3b690b43b9b514fb81377518f4039cd3e4f4914d8a6bdf01d679fb19c59c20aaa96597268f595db30ec21108a505370e3266ed3a6515637f16b8b689023edb77f7c8cc9e38e8afe78954f703aeeda7fffe014eeb6e56ea84e62f6da7535441524b4e45545f45524332305f544f4b454e5f4252494447455f544f4b454e5f414444524553530128d63adbf6b09002c26caf55c47e2f26635807e3ef1b027218aa74c8d61a3e537461726b576172655f537461726b6e65744574684272696467655f322e305f34a264697066735822122056331780566488e3f63c37e27fc79f70f3feb5f3bb1ee6f027352d15a2ac888264736f6c634300081b003303711c9d994faf6055172091cb841fd4831aa743e6f3315163b06a122c841846026bd110619d11cfdfc28e281df893bc24828e89177318e9dbd860cdaedeb6b353e43b954ba190a7e49386f1f78b01dcd9f628db23f432fa029a7dfd6d98e8fb03e615638e0b79444a70f8c695bf8f2a47033bf1cf95691ec3130f64939cee99",
    "linkReferences": {}
  },
  "methodIdentifiers": {
    "assignLegacyProxyGovernor(address)": "284b920e",
    "checkDeploymentStatus(address)": "d12fc182",
    "deactivate(address)": "3ea053eb",
    "deposit(address,uint256,uint256)": "0efe6a8b",
    "deposit(uint256,uint256)": "e2bbb158",
    "depositCancelRequest(address,uint256,uint256,uint256)": "a6d1d6c6",
    "depositReclaim(address,uint256,uint256,uint256)": "23205c52",
    "depositWithMessage(address,uint256,uint256,uint256[])": "be58b18e",
    "depositWithMessageCancelRequest(address,uint256,uint256,uint256[],uint256)": "cf50fd1c",
    "depositWithMessageReclaim(address,uint256,uint256,uint256[],uint256)": "b5cd0c3c",
    "disableWithdrawalLimit(address)": "5a72af89",
    "enableWithdrawalLimit(address)": "14af98b3",
    "enrollToken(address)": "ad8b92b4",
    "estimateDepositFeeWei()": "af8bc15e",
    "estimateEnrollmentFeeWei()": "4d8b92a5",
    "getMaxTotalBalance(address)": "4baf43da",
    "getRemainingIntradayAllowance(address)": "496ae54c",
    "getStatus(address)": "30ccebb5",
    "identify()": "eeb72866",
    "initialize(bytes)": "439fab91",
    "isAppGovernor(address)": "5a5d1bb9",
    "isAppRoleAdmin(address)": "8e5224ff",
    "isFrozen()": "33eeb147",
    "isGovernanceAdmin(address)": "cb1cccce",
    "isOperator(address)": "6d70f7ae",
    "isSecurityAdmin(address)": "d08fb6cb",
    "isSecurityAgent(address)": "757bd9ab",
    "isServicingToken(address)": "0c6f8664",
    "isTokenAdmin(address)": "a2bdde3d",
    "isUpgradeGovernor(address)": "6c04d9d5",
    "legacyDepositCancelRequest(uint256,uint256,uint256)": "6ffed68b",
    "legacyDepositReclaim(uint256,uint256,uint256)": "7d22dbc7",
    "maxDeposit()": "6083e59a",
    "maxTotalBalance()": "19534075",
    "registerAppGovernor(address)": "cdd1f70d",
    "registerAppRoleAdmin(address)": "17896383",
    "registerGovernanceAdmin(address)": "9463629a",
    "registerOperator(address)": "3682a450",
    "registerSecurityAdmin(address)": "62a14376",
    "registerSecurityAgent(address)": "0e770f23",
    "registerTokenAdmin(address)": "0b3a2d21",
    "registerUpgradeGovernor(address)": "6fc97cbf",
    "removeLegacyProxyGovernor(address)": "c1f5eb3a",
    "renounceRole(bytes32,address)": "36568abe",
    "revokeAppGovernor(address)": "deec9c5a",
    "revokeAppRoleAdmin(address)": "2f951985",
    "revokeGovernanceAdmin(address)": "ee0e6807",
    "revokeOperator(address)": "fad8b32a",
    "revokeSecurityAdmin(address)": "8101b64c",
    "revokeSecurityAgent(address)": "d9fa7091",
    "revokeTokenAdmin(address)": "fa0f73ba",
    "revokeUpgradeGovernor(address)": "ed9ef16a",
    "setL2TokenBridge(uint256)": "7fc2ab3e",
    "setMaxTotalBalance(address,uint256)": "d2b51eea",
    "withdraw(address,uint256)": "f3fef3a3",
    "withdraw(address,uint256,address)": "69328dec",
    "withdraw(uint256)": "2e1a7d4d",
    "withdraw(uint256,address)": "00f714ce"
  },
  "id": 14
}