{
  "abi": [
    {
      "type": "function",
      "name": "isValid",
      "inputs": [
        {
          "name": "fact",
          "type": "bytes32",
          "internalType": "bytes32"
        }
      ],
      "outputs": [
        {
          "name": "",
          "type": "bool",
          "internalType": "bool"
        }
      ],
      "stateMutability": "view"
    }
  ],
  "bytecode": {
    "object": "0x6080604052348015600e575f80fd5b50609b8061001b5f395ff3fe6080604052348015600e575f80fd5b50600436106026575f3560e01c80636a93856714602a575b5f80fd5b603b6035366004604f565b50600190565b604051901515815260200160405180910390f35b5f60208284031215605e575f80fd5b503591905056fea2646970667358221220baa24232f80bcfbe61e77c14f5d5b443b86597ad413f324d360a64376c9dd8ef64736f6c63430008180033",
    "linkReferences": {}
  },
  "methodIdentifiers": {
    "isValid(bytes32)": "6a938567"
  },
  "id": 0
}