{
  "abi": [
    {
      "type": "function",
      "name": "aggregatorProgramHash",
      "inputs": [],
      "outputs": [
        {
          "name": "",
          "type": "uint256",
          "internalType": "uint256"
        }
      ],
      "stateMutability": "view"
    },
    {
      "type": "function",
      "name": "cancelL1ToL2Message",
      "inputs": [
        {
          "name": "toAddress",
          "type": "uint256",
          "internalType": "uint256"
        },
        {
          "name": "selector",
          "type": "uint256",
          "internalType": "uint256"
        },
        {
          "name": "payload",
          "type": "uint256[]",
          "internalType": "uint256[]"
        },
        {
          "name": "nonce",
          "type": "uint256",
          "internalType": "uint256"
        }
      ],
      "outputs": [
        {
          "name": "",
          "type": "bytes32",
          "internalType": "bytes32"
        }
      ],
      "stateMutability": "nonpayable"
    },
    {
      "type": "function",
      "name": "configHash",
      "inputs": [],
      "outputs": [
        {
          "name": "",
          "type": "uint256",
          "internalType": "uint256"
        }
      ],
      "stateMutability": "view"
    },
    {
      "type": "function",
      "name": "consumeMessageFromL2",
      "inputs": [
        {
          "name": "fromAddress",
          "type": "uint256",
          "internalType": "uint256"
        },
        {
          "name": "payload",
          "type": "uint256[]",
          "internalType": "uint256[]"
        }
      ],
      "outputs": [
        {
          "name": "",
          "type": "bytes32",
          "internalType": "bytes32"
        }
      ],
      "stateMutability": "nonpayable"
    },
    {
      "type": "function",
      "name": "getMaxL1MsgFee",
      "inputs": [],
      "outputs": [
        {
          "name": "",
          "type": "uint256",
          "internalType": "uint256"
        }
      ],
      "stateMutability": "pure"
    },
    {
      "type": "function",
      "name": "identify",
      "inputs": [],
      "outputs": [
        {
          "name": "",
          "type": "string",
          "internalType": "string"
        }
      ],
      "stateMutability": "pure"
    },
    {
      "type": "function",
      "name": "initializeContractState",
      "inputs": [
        {
          "name": "data",
          "type": "bytes",
          "internalType": "bytes"
        }
      ],
      "outputs": [],
      "stateMutability": "nonpayable"
    },
    {
      "type": "function",
      "name": "l1ToL2MessageCancellations",
      "inputs": [
        {
          "name": "msgHash",
          "type": "bytes32",
          "internalType": "bytes32"
        }
      ],
      "outputs": [
        {
          "name": "",
          "type": "uint256",
          "internalType": "uint256"
        }
      ],
      "stateMutability": "view"
    },
    {
      "type": "function",
      "name": "l1ToL2MessageNonce",
      "inputs": [],
      "outputs": [
        {
          "name": "",
          "type": "uint256",
          "internalType": "uint256"
        }
      ],
      "stateMutability": "view"
    },
    {
      "type": "function",
      "name": "l1ToL2Messages",
      "inputs": [
        {
          "name": "msgHash",
          "type": "bytes32",
          "internalType": "bytes32"
        }
      ],
      "outputs": [
        {
          "name": "",
          "type": "uint256",
          "internalType": "uint256"
        }
      ],
      "stateMutability": "view"
    },
    {
      "type": "function",
      "name": "l2ToL1Messages",
      "inputs": [
        {
          "name": "msgHash",
          "type": "bytes32",
          "internalType": "bytes32"
        }
      ],
      "outputs": [
        {
          "name": "",
          "type": "uint256",
          "internalType": "uint256"
        }
      ],
      "stateMutability": "view"
    },
    {
      "type": "function",
      "name": "messageCancellationDelay",
      "inputs": [],
      "outputs": [
        {
          "name": "",
          "type": "uint256",
          "internalType": "uint256"
        }
      ],
      "stateMutability": "view"
    },
    {
      "type": "function",
      "name": "processSubContractAddresses",
      "inputs": [
        {
          "name": "subContractAddresses",
          "type": "bytes",
          "internalType": "bytes"
        }
      ],
      "outputs": [],
      "stateMutability": "nonpayable"
    },
    {
      "type": "function",
      "name": "programHash",
      "inputs": [],
      "outputs": [
        {
          "name": "",
          "type": "uint256",
          "internalType": "uint256"
        }
      ],
      "stateMutability": "view"
    },
    {
      "type": "function",
      "name": "sendMessageToL2",
      "inputs": [
        {
          "name": "toAddress",
          "type": "uint256",
          "internalType": "uint256"
        },
        {
          "name": "selector",
          "type": "uint256",
          "internalType": "uint256"
        },
        {
          "name": "payload",
          "type": "uint256[]",
          "internalType": "uint256[]"
        }
      ],
      "outputs": [
        {
          "name": "",
          "type": "bytes32",
          "internalType": "bytes32"
        },
        {
          "name": "",
          "type": "uint256",
          "internalType": "uint256"
        }
      ],
      "stateMutability": "payable"
    },
    {
      "type": "function",
      "name": "setAggregatorProgramHash",
      "inputs": [
        {
          "name": "newAggregatorProgramHash",
          "type": "uint256",
          "internalType": "uint256"
        }
      ],
      "outputs": [],
      "stateMutability": "nonpayable"
    },
    {
      "type": "function",
      "name": "setConfigHash",
      "inputs": [
        {
          "name": "newConfigHash",
          "type": "uint256",
          "internalType": "uint256"
        }
      ],
      "outputs": [],
      "stateMutability": "nonpayable"
    },
    {
      "type": "function",
      "name": "setMessageCancellationDelay",
      "inputs": [
        {
          "name": "delayInSeconds",
          "type": "uint256",
          "internalType": "uint256"
        }
      ],
      "outputs": [],
      "stateMutability": "nonpayable"
    },
    {
      "type": "function",
      "name": "setProgramHash",
      "inputs": [
        {
          "name": "newProgramHash",
          "type": "uint256",
          "internalType": "uint256"
        }
      ],
      "outputs": [],
      "stateMutability": "nonpayable"
    },
    {
      "type": "function",
      "name": "startL1ToL2MessageCancellation",
      "inputs": [
        {
          "name": "toAddress",
          "type": "uint256",
          "internalType": "uint256"
        },
        {
          "name": "selector",
          "type": "uint256",
          "internalType": "uint256"
        },
        {
          "name": "payload",
          "type": "uint256[]",
          "internalType": "uint256[]"
        },
        {
          "name": "nonce",
          "type": "uint256",
          "internalType": "uint256"
        }
      ],
      "outputs": [
        {
          "name": "",
          "type": "bytes32",
          "internalType": "bytes32"
        }
      ],
      "stateMutability": "nonpayable"
    },
    {
      "type": "function",
      "name": "stateBlockHash",
      "inputs": [],
      "outputs": [
        {
          "name": "",
          "type": "uint256",
          "internalType": "uint256"
        }
      ],
      "stateMutability": "view"
    },
    {
      "type": "function",
      "name": "stateBlockNumber",
      "inputs": [],
      "outputs": [
        {
          "name": "",
          "type": "int256",
          "internalType": "int256"
        }
      ],
      "stateMutability": "view"
    },
    {
      "type": "function",
      "name": "stateRoot",
      "inputs": [],
      "outputs": [
        {
          "name": "",
          "type": "uint256",
          "internalType": "uint256"
        }
      ],
      "stateMutability": "view"
    },
    {
      "type": "function",
      "name": "updateState",
      "inputs": [
        {
          "name": "programOutput",
          "type": "uint256[]",
          "internalType": "uint256[]"
        },
        {
          "name": "onchainDataHash",
          "type": "uint256",
          "internalType": "uint256"
        },
        {
          "name": "onchainDataSize",
          "type": "uint256",
          "internalType": "uint256"
        }
      ],
      "outputs": [],
      "stateMutability": "nonpayable"
    },
    {
      "type": "function",
      "name": "updateStateKzgDA",
      "inputs": [
        {
          "name": "programOutput",
          "type": "uint256[]",
          "internalType": "uint256[]"
        },
        {
          "name": "kzgProofs",
          "type": "bytes[]",
          "internalType": "bytes[]"
        }
      ],
      "outputs": [],
      "stateMutability": "nonpayable"
    },
    {
      "type": "event",
      "name": "AggregatorProgramHashChanged",
      "inputs": [
        {
          "name": "changedBy",
          "type": "address",
          "indexed": true,
          "internalType": "address"
        },
        {
          "name": "oldAggregatorProgramHash",
          "type": "uint256",
          "indexed": false,
          "internalType": "uint256"
        },
        {
          "name": "newAggregatorProgramHash",
          "type": "uint256",
          "indexed": false,
          "internalType": "uint256"
        }
      ],
      "anonymous": false
    },
    {
      "type": "event",
      "name": "ConfigHashChanged",
      "inputs": [
        {
          "name": "changedBy",
          "type": "address",
          "indexed": true,
          "internalType": "address"
        },
        {
          "name": "oldConfigHash",
          "type": "uint256",
          "indexed": false,
          "internalType": "uint256"
        },
        {
          "name": "newConfigHash",
          "type": "uint256",
          "indexed": false,
          "internalType": "uint256"
        }
      ],
      "anonymous": false
    },
    {
      "type": "event",
      "name": "ConsumedMessageToL1",
      "inputs": [
        {
          "name": "fromAddress",
          "type": "uint256",
          "indexed": true,
          "internalType": "uint256"
        },
        {
          "name": "toAddress",
          "type": "address",
          "indexed": true,
          "internalType": "address"
        },
        {
          "name": "payload",
          "type": "uint256[]",
          "indexed": false,
          "internalType": "uint256[]"
        }
      ],
      "anonymous": false
    },
    {
      "type": "event",
      "name": "ConsumedMessageToL2",
      "inputs": [
        {
          "name": "fromAddress",
          "type": "address",
          "indexed": true,
          "internalType": "address"
        },
        {
          "name": "toAddress",
          "type": "uint256",
          "indexed": true,
          "internalType": "uint256"
        },
        {
          "name": "selector",
          "type": "uint256",
          "indexed": true,
          "internalType": "uint256"
        },
        {
          "name": "payload",
          "type": "uint256[]",
          "indexed": false,
          "internalType": "uint256[]"
        },
        {
          "name": "nonce",
          "type": "uint256",
          "indexed": false,
          "internalType": "uint256"
        }
      ],
      "anonymous": false
    },
    {
      "type": "event",
      "name": "LogMessageToL1",
      "inputs": [
        {
          "name": "fromAddress",
          "type": "uint256",
          "indexed": true,
          "internalType": "uint256"
        },
        {
          "name": "toAddress",
          "type": "address",
          "indexed": true,
          "internalType": "address"
        },
        {
          "name": "payload",
          "type": "uint256[]",
          "indexed": false,
          "internalType": "uint256[]"
        }
      ],
      "anonymous": false
    },
    {
      "type": "event",
      "name": "LogMessageToL2",
      "inputs": [
        {
          "name": "fromAddress",
          "type": "address",
          "indexed": true,
          "internalType": "address"
        },
        {
          "name": "toAddress",
          "type": "uint256",
          "indexed": true,
          "internalType": "uint256"
        },
        {
          "name": "selector",
          "type": "uint256",
          "indexed": true,
          "internalType": "uint256"
        },
        {
          "name": "payload",
          "type": "uint256[]",
          "indexed": false,
          "internalType": "uint256[]"
        },
        {
          "name": "nonce",
          "type": "uint256",
          "indexed": false,
          "internalType": "uint256"
        },
        {
          "name": "fee",
          "type": "uint256",
          "indexed": false,
          "internalType": "uint256"
        }
      ],
      "anonymous": false
    },
    {
      "type": "event",
      "name": "LogStateTransitionFact",
      "inputs": [
        {
          "name": "stateTransitionFact",
          "type": "bytes32",
          "indexed": false,
          "internalType": "bytes32"
        }
      ],
      "anonymous": false
    },
    {
      "type": "event",
      "name": "LogStateUpdate",
      "inputs": [
        {
          "name": "globalRoot",
          "type": "uint256",
          "indexed": false,
          "internalType": "uint256"
        },
        {
          "name": "blockNumber",
          "type": "int256",
          "indexed": false,
          "internalType": "int256"
        },
        {
          "name": "blockHash",
          "type": "uint256",
          "indexed": false,
          "internalType": "uint256"
        }
      ],
      "anonymous": false
    },
    {
      "type": "event",
      "name": "MessageToL2Canceled",
      "inputs": [
        {
          "name": "fromAddress",
          "type": "address",
          "indexed": true,
          "internalType": "address"
        },
        {
          "name": "toAddress",
          "type": "uint256",
          "indexed": true,
          "internalType": "uint256"
        },
        {
          "name": "selector",
          "type": "uint256",
          "indexed": true,
          "internalType": "uint256"
        },
        {
          "name": "payload",
          "type": "uint256[]",
          "indexed": false,
          "internalType": "uint256[]"
        },
        {
          "name": "nonce",
          "type": "uint256",
          "indexed": false,
          "internalType": "uint256"
        }
      ],
      "anonymous": false
    },
    {
      "type": "event",
      "name": "MessageToL2CancellationStarted",
      "inputs": [
        {
          "name": "fromAddress",
          "type": "address",
          "indexed": true,
          "internalType": "address"
        },
        {
          "name": "toAddress",
          "type": "uint256",
          "indexed": true,
          "internalType": "uint256"
        },
        {
          "name": "selector",
          "type": "uint256",
          "indexed": true,
          "internalType": "uint256"
        },
        {
          "name": "payload",
          "type": "uint256[]",
          "indexed": false,
          "internalType": "uint256[]"
        },
        {
          "name": "nonce",
          "type": "uint256",
          "indexed": false,
          "internalType": "uint256"
        }
      ],
      "anonymous": false
    },
    {
      "type": "event",
      "name": "ProgramHashChanged",
      "inputs": [
        {
          "name": "changedBy",
          "type": "address",
          "indexed": true,
          "internalType": "address"
        },
        {
          "name": "oldProgramHash",
          "type": "uint256",
          "indexed": false,
          "internalType": "uint256"
        },
        {
          "name": "newProgramHash",
          "type": "uint256",
          "indexed": false,
          "internalType": "uint256"
        }
      ],
      "anonymous": false
    }
  ],
  "bytecode": {
    "object": "0x6080604052348015600e575f80fd5b50612d238061001c5f395ff3fe608060405260043610610161575f3560e01c80638303bd8a116100cd578063a67f82a311610087578063e1f1176d11610062578063e1f1176d146103c6578063e87e7332146103da578063eb27feeb146103f9578063eeb728661461040d575f80fd5b8063a67f82a31461036a578063b5f5004c14610389578063c99d397f146103a7575f80fd5b80638303bd8a146102d15780638a9bf090146102e55780639020429c146102f95780639588eca2146103185780639be446bf1461032c578063a46efaf31461034b575f80fd5b8063507ee5281161011e578063507ee5281461021c57806354eccba41461023b5780636170ff1b14610255578063775526411461027457806377c7d7a9146102935780637a98660b146102b2575f80fd5b8063018cccdf146101655780632c9dd5c01461018c57806335befa5d146101ab578063382d83e3146101bf5780633d07b336146101d35780633e3aa6c5146101f4575b5f80fd5b348015610170575f80fd5b50610179610458565b6040519081526020015b60405180910390f35b348015610197575f80fd5b506101796101a63660046125e7565b61049c565b3480156101b6575f80fd5b506101796105b4565b3480156101ca575f80fd5b506101796105c6565b3480156101de575f80fd5b506101f26101ed36600461262f565b6105d8565b005b610207610202366004612646565b610625565b60408051928352602083019190915201610183565b348015610227575f80fd5b506101f2610236366004612695565b6107b5565b348015610246575f80fd5b50670de0b6b3a7640000610179565b348015610260575f80fd5b5061017961026f3660046126e9565b6108c1565b34801561027f575f80fd5b506101f261028e36600461273f565b610ad4565b34801561029e575f80fd5b506101796102ad36600461262f565b610bae565b3480156102bd575f80fd5b506101796102cc3660046126e9565b610bc7565b3480156102dc575f80fd5b50610179610ca0565b3480156102f0575f80fd5b50610179610cc2565b348015610304575f80fd5b506101f261031336600461262f565b610ce4565b348015610323575f80fd5b50610179610d2e565b348015610337575f80fd5b5061017961034636600461262f565b610d3d565b348015610356575f80fd5b5061017961036536600461262f565b610d46565b348015610375575f80fd5b506101f261038436600461278c565b610d4f565b348015610394575f80fd5b506101f26103a336600461278c565b5050565b3480156103b2575f80fd5b506101f26103c136600461262f565b610dca565b3480156103d1575f80fd5b50610179610dd3565b3480156103e5575f80fd5b506101f26103f436600461262f565b610df5565b348015610404575f80fd5b50610179610e3f565b348015610418575f80fd5b50604080518082018252601981527f537461726b576172655f537461726b6e65745f323032345f39000000000000006020820152905161018391906127fa565b5f6104976040518060400160405280602081526020017f535441524b4e45545f312e305f4d5347494e475f4c31544f4c325f4e4f4e4345815250610e5d565b905090565b6040515f9081906104b99086903390869088908290602001612856565b6040516020818303038152906040528051906020012090505f6104da610e90565b5f83815260209190915260409020541161053b5760405162461bcd60e51b815260206004820152601a60248201527f494e56414c49445f4d4553534147455f544f5f434f4e53554d4500000000000060448201526064015b60405180910390fd5b336001600160a01b0316857f7a06c571aa77f34d9706c51e5d8122b5595aebeaa34233bfe866f22befb973b186866040516105779291906128a4565b60405180910390a36001610589610e90565b5f8381526020019081526020015f205f8282546105a691906128cb565b909155509095945050505050565b5f6105bd610eb2565b60010154905090565b5f6105cf610eb2565b60020154905090565b337f393c6beb5756a944b2967f15f31ff671e312e945d7a84fd3bdcfd6b408b2dc79610602610dd3565b60408051918252602082018590520160405180910390a261062281610efb565b50565b5f805f34116106805760405162461bcd60e51b815260206004820152602160248201527f4c315f4d53475f4645455f4d5553545f42455f475245415445525f5448414e5f6044820152600360fc1b6064820152608401610532565b670de0b6b3a76400003411156106d85760405162461bcd60e51b815260206004820152601760248201527f4d41585f4c315f4d53475f4645455f45584345454445440000000000000000006044820152606401610532565b5f6106e1610458565b905061072e6040518060400160405280602081526020017f535441524b4e45545f312e305f4d5347494e475f4c31544f4c325f4e4f4e434581525082600161072991906128de565b610f19565b8587336001600160a01b03167fdb80dd488acf86d17c747445b0eabb5d57c541d3bd7b6b87af987858e5066b2b8888863460405161076f94939291906128f1565b60405180910390a45f6107858888888886610f4b565b90506107923460016128de565b61079a610f8b565b5f838152602091909152604090205597909650945050505050565b600a83116108015760405162461bcd60e51b815260206004820152601960248201527814d5105492d3915517d3d55514155517d513d3d7d4d213d495603a1b6044820152606401610532565b610815848461080e610eb2565b9190610fad565b8383600881811061082857610828612917565b905060200201356001146108775760405162461bcd60e51b8152602060048201526016602482015275554e45585045435445445f4b5a475f44415f464c414760501b6044820152606401610532565b61088e61088784600a818861292b565b8484611041565b5f61089985856116ab565b90506108a68585836116de565b6108ba85856108b3610eb2565b9190611aa9565b5050505050565b5f8486336001600160a01b03167f8abd2ec2e0a10c82f5b60ea00455fa96c41fd144f225fcc52b8d83d94f803ed887878760405161090193929190612956565b60405180910390a45f6109178787878787610f4b565b90505f610922610f8b565b5f838152602091909152604081205491508190036109795760405162461bcd60e51b81526020600482015260146024820152731393d7d35154d4d051d157d513d7d0d05390d15360621b6044820152606401610532565b5f610982611b0f565b5f848152602091909152604081205491508190036109ed5760405162461bcd60e51b815260206004820152602260248201527f4d4553534147455f43414e43454c4c4154494f4e5f4e4f545f52455155455354604482015261115160f21b6064820152608401610532565b5f6109f6610ca0565b610a0090836128de565b905081811015610a525760405162461bcd60e51b815260206004820152601c60248201527f43414e43454c5f414c4c4f5745445f54494d455f4f564552464c4f57000000006044820152606401610532565b80421015610aae5760405162461bcd60e51b8152602060048201526024808201527f4d4553534147455f43414e43454c4c4154494f4e5f4e4f545f414c4c4f57454460448201526317d6515560e21b6064820152608401610532565b5f610ab7610f8b565b5f8681526020919091526040902055509198975050505050505050565b600a8311610b205760405162461bcd60e51b815260206004820152601960248201527814d5105492d3915517d3d55514155517d513d3d7d4d213d495603a1b6044820152606401610532565b610b2d848461080e610eb2565b83836008818110610b4057610b40612917565b905060200201355f14610b8e5760405162461bcd60e51b8152602060048201526016602482015275554e45585045435445445f4b5a475f44415f464c414760501b6044820152606401610532565b5f6108998585604051806040016040528087815260200186815250611b31565b5f610bb7610f8b565b5f92835260205250604090205490565b5f8486336001600160a01b03167f2e00dccd686fd6823ec7dc3e125582aa82881b6ff5f6b5a73856e1ea8338a3be878787604051610c0793929190612956565b60405180910390a45f610c1d8787878787610f4b565b90505f610c28610f8b565b5f8381526020919091526040902054905080610c7d5760405162461bcd60e51b81526020600482015260146024820152731393d7d35154d4d051d157d513d7d0d05390d15360621b6044820152606401610532565b42610c86611b0f565b5f8481526020919091526040902055509695505050505050565b5f6104976040518060600160405280602d8152602001612c57602d9139610e5d565b5f610497604051806060016040528060238152602001612c3460239139610e5d565b337f07688623ef226ae0c2f88d3fdc7f6bb41427c804bcec3f36699b07148e3f5340610d0e610e3f565b60408051918252602082018590520160405180910390a261062281611ba6565b5f610d37610eb2565b54919050565b5f610bb7611b0f565b5f610bb7610e90565b5f80808080610d6086880188612979565b94509450945094509450610d7385611bc8565b610d7c84611ba6565b610d8583611bea565b610dac81610d91610eb2565b90805182556020810151600183015560400151600290910155565b610db582610efb565b610dc162069780611c0c565b50505050505050565b61062281611c0c565b5f610497604051806060016040528060218152602001612c8460219139610e5d565b337f600a61c1b32ac42fb2fe76e8fc7582a98106668fc16dcd85567cd3937363e49b610e1f610cc2565b60408051918252602082018590520160405180910390a261062281611bc8565b5f6104976040518060600160405280602e8152602001612c06602e91395b5f8082604051602001610e709190612a3f565b60408051601f198184030181529190528051602090910120549392505050565b5f610497604051806060016040528060238152602001612ca560239139611c2e565b5f80604051806060016040528060278152602001612bdf60279139604051602001610edd9190612a3f565b60408051601f19818403018152919052805160209091012092915050565b610622604051806060016040528060218152602001612c8460219139825b5f82604051602001610f2b9190612a3f565b604051602081830303815290604052805190602001209050818155505050565b6040515f90610f6a90339088908590899088908a908290602001612a51565b60405160208183030381529060405280519060200120905095945050505050565b5f610497604051806060016040528060268152602001612cc860269139611c2e565b5f83600101545f1903610fcc575067080000000000001160c01b610fd3565b5060018301545b8083836002818110610fe757610fe7612917565b905060200201351461103b5760405162461bcd60e51b815260206004820152601960248201527f494e56414c49445f505245565f424c4f434b5f4e554d424552000000000000006044820152606401610532565b50505050565b600283101561108a5760405162461bcd60e51b815260206004820152601560248201527412d691d7d4d151d351539517d513d3d7d4d213d495605a1b6044820152606401610532565b5f84845f81811061109d5761109d612917565b905060200201355f1b90505f858560018181106110bc576110bc612917565b9050602002013590505f8160026110d39190612a88565b6110de9060026128de565b905083821461112f5760405162461bcd60e51b815260206004820152601c60248201527f494e56414c49445f4e554d4245525f4f465f4b5a475f50524f4f4653000000006044820152606401610532565b61113a826002612a88565b61114490826128de565b86101561118b5760405162461bcd60e51b815260206004820152601560248201527412d691d7d4d151d351539517d513d3d7d4d213d495605a1b6044820152606401610532565b5f5b828110156116a15780495f8190036111dc5760405162461bcd60e51b81526020600482015260126024820152710929cac82989288be84989e84be929c888ab60731b6044820152606401610532565b600160f81b815f1a60f81b6001600160f81b0319161461123e5760405162461bcd60e51b815260206004820152601c60248201527f554e45585045435445445f424c4f425f484153485f56455253494f4e000000006044820152606401610532565b60605f8a8a61124e866002612a88565b6112599060026128de565b81811061126857611268612917565b9050602002013590505f8b8b8660026112819190612a88565b61128c9060026128de565b6112979060016128de565b8181106112a6576112a6612917565b9050602002013590506001600160c01b0380168211156113015760405162461bcd60e51b81526020600482015260166024820152751253959053125117d2d691d7d0d3d35352551351539560521b6044820152606401610532565b6001600160c01b038111156113515760405162461bcd60e51b81526020600482015260166024820152751253959053125117d2d691d7d0d3d35352551351539560521b6044820152606401610532565b6040805167ffffffffffffffff1992821b8316602082015292811b9091166038830152805180830360300181526050909201905290505f808b8b611396876002612a88565b6113a090896128de565b8181106113af576113af612917565b9050602002013590505f8c8c8760026113c89190612a88565b6113d2908a6128de565b6113dd9060016128de565b8181106113ec576113ec612917565b9050602002013590506001600160801b0380168211156114405760405162461bcd60e51b815260206004820152600f60248201526e494e56414c49445f595f56414c554560881b6044820152606401610532565b6001600160801b038111156114895760405162461bcd60e51b815260206004820152600f60248201526e494e56414c49445f595f56414c554560881b6044820152606401610532565b61149782608083901b6128de565b5f1b9250505060308989868181106114b1576114b1612917565b90506020028101906114c39190612a9f565b90501461150b5760405162461bcd60e51b8152602060048201526016602482015275494e56414c49445f4b5a475f50524f4f465f53495a4560501b6044820152606401610532565b5f80600a858a85878f8f8c81811061152557611525612917565b90506020028101906115379190612a9f565b60405160200161154c96959493929190612ae2565b60408051601f198184030181529082905261156691612a3f565b5f60405180830381855afa9150503d805f811461159e576040519150601f19603f3d011682016040523d82523d5f602084013e6115a3565b606091505b5091509150816116055760405162461bcd60e51b815260206004820152602760248201527f504f494e545f4556414c554154494f4e5f505245434f4d50494c455f43414c4c60448201526617d1905253115160ca1b6064820152608401610532565b805160208201207fb2157d3a40131b14c4c675335465dffde802f0ce5218ad012284d7f275d1b37c146116905760405162461bcd60e51b815260206004820152602d60248201527f554e45585045435445445f504f494e545f4556414c554154494f4e5f5052454360448201526c13d35412531157d3d555141555609a1b6064820152608401610532565b50506001909301925061118d915050565b5050505050505050565b5f82826040516020016116bf929190612b15565b6040516020818303038152906040528051906020012090505b92915050565b6116e88383611c60565b6116f0610dd3565b8383600781811061170357611703612917565b905060200201351461174d5760405162461bcd60e51b81526020600482015260136024820152720929cac82989288be869e9c8c928ebe9082a69606b1b6044820152606401610532565b8282600981811061176057611760612917565b905060200201355f146117b55760405162461bcd60e51b815260206004820152601960248201527f46554c4c5f4f55545055545f4e4f545f535550504f52544544000000000000006044820152606401610532565b5f838360068181106117c9576117c9612917565b905060200201355f14611864576117de610cc2565b848460068181106117f1576117f1612917565b90506020020135146118555760405162461bcd60e51b815260206004820152602760248201527f41474752454741544f525f4d4f44455f494e56414c49445f4f535f50524f47526044820152660829abe9082a6960cb1b6064820152608401610532565b61185d610e3f565b905061186f565b61186c610cc2565b90505b6040805160208082018490528183018590528251808303840181526060909201909252805191012061189f611cf3565b6001600160a01b0316636a938567826040518263ffffffff1660e01b81526004016118cc91815260200190565b602060405180830381865afa1580156118e7573d5f803e3d5ffd5b505050506040513d601f19601f8201168201806040525081019061190b9190612b21565b6119575760405162461bcd60e51b815260206004820152601960248201527f4e4f5f53544154455f5452414e534954494f4e5f50524f4f46000000000000006044820152606401610532565b6040518381527f9866f8ddfe70bb512b2f2b28b49d4017c43f7ba775f1a20c61c13eea8cdac1119060200160405180910390a161199e8585611997610eb2565b9190611d15565b5f6119a98686611e99565b90506119c960016119bc8784818b61292b565b6119c4610e90565b611f34565b6119d390826128de565b90506119ed5f6119e58784818b61292b565b6119c4610f8b565b6119f790826128de565b9050848114611a485760405162461bcd60e51b815260206004820152601860248201527f535441524b4e45545f4f55545055545f544f4f5f4c4f4e4700000000000000006044820152606401610532565b5f611a51610eb2565b805460018201546002830154604080519384526020840192909252908201529091507fd342ddf7a308dec111745b00315c14b7efb2bdae570a6856e088ed0c65a3576c9060600160405180910390a150505050505050565b81816003818110611abc57611abc612917565b90506020020135836001015414611b0a5760405162461bcd60e51b81526020600482015260126024820152715245454e5452414e43595f4641494c55524560701b6044820152606401610532565b505050565b5f610497604051806060016040528060308152602001612baf60309139611c2e565b5f8281611b3e86836116ab565b90505f8183865f0151876020015186611b5791906128de565b6040805160208101959095528401929092526060830152608082015260a00160408051601f1981840301815291905280516020909101209050611b9b8160016128de565b979650505050505050565b6106226040518060600160405280602e8152602001612c06602e913982610f19565b610622604051806060016040528060238152602001612c346023913982610f19565b610622604051806060016040528060228152602001612b8d60229139826124ef565b6106226040518060600160405280602d8152602001612c57602d913982610f19565b5f8082604051602001611c419190612a3f565b60408051601f1981840301815291905280516020909101209392505050565b6001600167080000000000001160c01b01602083028401845b81811015611c995782813510611c91575f9350611c99565b602001611c79565b50505080611b0a5760405162461bcd60e51b815260206004820152602160248201527f50524f4752414d5f4f55545055545f56414c55455f4f55545f4f465f52414e476044820152604560f81b6064820152608401610532565b5f610497604051806060016040528060228152602001612b8d60229139610e5d565b611d20838383610fad565b5f82826003818110611d3457611d34612917565b90506020020135905083600101548113611d905760405162461bcd60e51b815260206004820152601860248201527f494e56414c49445f4e45575f424c4f434b5f4e554d42455200000000000000006044820152606401610532565b60018401819055600284015483836004818110611daf57611daf612917565b9050602002013514611e035760405162461bcd60e51b815260206004820152601760248201527f494e56414c49445f505245565f424c4f434b5f484153480000000000000000006044820152606401610532565b82826005818110611e1657611e16612917565b6020029190910135600286015550365f611e308585612547565b91509150611e3e8282612570565b865414611e855760405162461bcd60e51b81526020600482015260156024820152741253959053125117d41491559253d554d7d493d3d5605a1b6044820152606401610532565b611e8f8282612592565b9095555050505050565b5f82826008818110611ead57611ead612917565b905060200201355f03611ec25750600a6116d8565b5f8383611ed16001600a6128de565b818110611ee057611ee0612917565b905060200201359050806002611ef69190612a88565b611f01826002612a88565b611f0d600a60016128de565b611f189060016128de565b611f2291906128de565b611f2c91906128de565b949350505050565b5f8084845f818110611f4857611f48612917565b90506020020135905063400000008110611fa45760405162461bcd60e51b815260206004820152601c60248201527f494e56414c49445f4d4553534147455f5345474d454e545f53495a45000000006044820152606401610532565b60015f611fb183836128de565b90505f88611fc0576004611fc3565b60025b90505f5b828410156123ff575f611fda83866128de565b905088811061201f5760405162461bcd60e51b8152602060048201526011602482015270135154d4d051d157d513d3d7d4d213d495607a1b6044820152606401610532565b5f8a8a8381811061203257612032612917565b905060200201359050634000000081106120875760405162461bcd60e51b81526020600482015260166024820152750929cac82989288bea082b2989e8288be988a9c8ea8960531b6044820152606401610532565b5f816120948460016128de565b61209e91906128de565b90508a8111156120f05760405162461bcd60e51b815260206004820152601960248201527f5452554e43415445445f4d4553534147455f5041594c4f4144000000000000006044820152606401610532565b8c15612200575f8c8c899084926121099392919061292b565b60405160200161211a929190612b15565b6040516020818303038152906040528051906020012090508c8c60018a61214191906128de565b81811061215057612150612917565b905060200201356001600160a01b03168d8d5f8b61216e91906128de565b81811061217d5761217d612917565b905060200201357f4264ac208b5fde633ccdd42e0f12c3d6d443a4f3779bbf886925b94665b63a228f8f60038d6121b491906128de565b6121c09288929061292b565b6040516121ce9291906128a4565b60405180910390a35f81815260208c9052604081208054600192906121f49084906128de565b909155506123f5915050565b5f8c8c899084926122139392919061292b565b604051602001612224929190612b15565b60408051601f1981840301815291815281516020928301205f818152928e9052912054909150806122975760405162461bcd60e51b815260206004820152601a60248201527f494e56414c49445f4d4553534147455f544f5f434f4e53554d450000000000006044820152606401610532565b6122a26001826128cb565b6122ac90876128de565b5f92835260208d90526040832083905595508d90508c6122cd60028b6128de565b8181106122dc576122dc612917565b9050602002013590505f8d8d60058b6122f591906128de565b6123019286929061292b565b808060200260200160405190810160405280939291908181526020018383602002808284375f81840152601f19601f8201169050808301925050505050505090508d8d60038b61235191906128de565b81811061236057612360612917565b905060200201358e8e60018c61237691906128de565b81811061238557612385612917565b905060200201358f8f5f8d61239a91906128de565b8181106123a9576123a9612917565b905060200201356001600160a01b03167f9592d37825c744e33fa80c469683bbd04d336241bb600b574758efd182abe26a84866040516123ea929190612b40565b60405180910390a450505b9550611fc7915050565b82841461244e5760405162461bcd60e51b815260206004820152601c60248201527f494e56414c49445f4d4553534147455f5345474d454e545f53495a45000000006044820152606401610532565b80156124e1576040515f90339083908381818185875af1925050503d805f8114612493576040519150601f19603f3d011682016040523d82523d5f602084013e612498565b606091505b50509050806124df5760405162461bcd60e51b815260206004820152601360248201527211551217d514905394d1915497d19052531151606a1b6044820152606401610532565b505b509198975050505050505050565b5f6124f983610e5d565b6001600160a01b03161461253d5760405162461bcd60e51b815260206004820152600b60248201526a1053149150511657d4d15560aa1b6044820152606401610532565b6103a38282610f19565b365f8381846125578260026128de565b926125649392919061292b565b915091505b9250929050565b5f82825f81811061258357612583612917565b90506020020135905092915050565b5f8282600181811061258357612583612917565b5f8083601f8401126125b6575f80fd5b50813567ffffffffffffffff8111156125cd575f80fd5b6020830191508360208260051b8501011115612569575f80fd5b5f805f604084860312156125f9575f80fd5b83359250602084013567ffffffffffffffff811115612616575f80fd5b612622868287016125a6565b9497909650939450505050565b5f6020828403121561263f575f80fd5b5035919050565b5f805f8060608587031215612659575f80fd5b8435935060208501359250604085013567ffffffffffffffff81111561267d575f80fd5b612689878288016125a6565b95989497509550505050565b5f805f80604085870312156126a8575f80fd5b843567ffffffffffffffff8111156126be575f80fd5b6126ca878288016125a6565b909550935050602085013567ffffffffffffffff81111561267d575f80fd5b5f805f805f608086880312156126fd575f80fd5b8535945060208601359350604086013567ffffffffffffffff811115612721575f80fd5b61272d888289016125a6565b96999598509660600135949350505050565b5f805f8060608587031215612752575f80fd5b843567ffffffffffffffff811115612768575f80fd5b612774878288016125a6565b90989097506020870135966040013595509350505050565b5f806020838503121561279d575f80fd5b823567ffffffffffffffff8111156127b3575f80fd5b8301601f810185136127c3575f80fd5b803567ffffffffffffffff8111156127d9575f80fd5b8560208284010111156127ea575f80fd5b6020919091019590945092505050565b602081525f82518060208401528060208501604085015e5f604082850101526040601f19601f83011684010191505092915050565b5f6001600160fb1b03831115612843575f80fd5b8260051b80838637939093019392505050565b8581528460208201528360408201525f611b9b60608301848661282f565b8183525f6001600160fb1b0383111561288b575f80fd5b8260051b80836020870137939093016020019392505050565b602081525f611f2c602083018486612874565b634e487b7160e01b5f52601160045260245ffd5b818103818111156116d8576116d86128b7565b808201808211156116d8576116d86128b7565b606081525f612904606083018688612874565b6020830194909452506040015292915050565b634e487b7160e01b5f52603260045260245ffd5b5f8085851115612939575f80fd5b83861115612945575f80fd5b5050600583901b0193919092039150565b604081525f612969604083018587612874565b9050826020830152949350505050565b5f805f805f85870360e081121561298e575f80fd5b863595506020870135945060408701356001600160a01b03811681146129b2575f80fd5b93506060878101359350607f19820112156129cb575f80fd5b506040516060810181811067ffffffffffffffff821117156129fb57634e487b7160e01b5f52604160045260245ffd5b60409081526080880135825260a0880135602083015260c090970135968101969096525092959194509290565b5f81518060208401855e5f93019283525090919050565b5f612a4a8284612a28565b9392505050565b8781528660208201528560408201528460608201528360808201525f612a7b60a08301848661282f565b9998505050505050505050565b80820281158282048414176116d8576116d86128b7565b5f808335601e19843603018112612ab4575f80fd5b83018035915067ffffffffffffffff821115612ace575f80fd5b602001915036819003821315612569575f80fd5b8681528560208201528460408201525f612aff6060830186612a28565b838582375f930192835250909695505050505050565b5f611f2c82848661282f565b5f60208284031215612b31575f80fd5b81518015158114612a4a575f80fd5b604080825283519082018190525f9060208501906060840190835b81811015612b79578351835260209384019390920191600101612b5b565b505060209390930193909352509291505056fe535441524b4e45545f312e305f494e49545f56455249464945525f41444452455353535441524b4e45545f312e305f4d5347494e475f4c31544f4c325f43414e43454c4c4154494f4e5f4d41505050494e47535441524b4e45545f312e305f494e49545f535441524b4e45545f53544154455f535452554354535441524b4e45545f312e305f494e49545f41474752454741544f525f50524f4752414d5f484153485f55494e54535441524b4e45545f312e305f494e49545f50524f4752414d5f484153485f55494e54535441524b4e45545f312e305f4d5347494e475f4c31544f4c325f43414e43454c4c4154494f4e5f44454c4159535441524b4e45545f312e305f535441524b4e45545f434f4e4649475f48415348535441524b4e45545f312e305f4d5347494e475f4c32544f4c315f4d41505050494e47535441524b4e45545f312e305f4d5347494e475f4c31544f4c325f4d41505050494e475f5632a264697066735822122016b88bf423ce3dd98fa2c2f4dcb6f6c1ccf9e142e97eeae23543cff7e8eb87fe64736f6c634300081a0033",
    "linkReferences": {}
  },
  "methodIdentifiers": {
    "aggregatorProgramHash()": "eb27feeb",
    "cancelL1ToL2Message(uint256,uint256,uint256[],uint256)": "6170ff1b",
    "configHash()": "e1f1176d",
    "consumeMessageFromL2(uint256,uint256[])": "2c9dd5c0",
    "getMaxL1MsgFee()": "54eccba4",
    "identify()": "eeb72866",
    "initializeContractState(bytes)": "a67f82a3",
    "l1ToL2MessageCancellations(bytes32)": "9be446bf",
    "l1ToL2MessageNonce()": "018cccdf",
    "l1ToL2Messages(bytes32)": "77c7d7a9",
    "l2ToL1Messages(bytes32)": "a46efaf3",
    "messageCancellationDelay()": "8303bd8a",
    "processSubContractAddresses(bytes)": "b5f5004c",
    "programHash()": "8a9bf090",
    "sendMessageToL2(uint256,uint256,uint256[])": "3e3aa6c5",
    "setAggregatorProgramHash(uint256)": "9020429c",
    "setConfigHash(uint256)": "3d07b336",
    "setMessageCancellationDelay(uint256)": "c99d397f",
    "setProgramHash(uint256)": "e87e7332",
    "startL1ToL2MessageCancellation(uint256,uint256,uint256[],uint256)": "7a98660b",
    "stateBlockHash()": "382d83e3",
    "stateBlockNumber()": "35befa5d",
    "stateRoot()": "9588eca2",
    "updateState(uint256[],uint256,uint256)": "77552641",
    "updateStateKzgDA(uint256[],bytes[])": "507ee528"
  },
  "id": 3
}